{
  "contractName": "WheezyToken",
  "abi": [
    {
      "inputs": [],
      "stateMutability": "nonpayable",
      "type": "constructor"
    },
    {
      "anonymous": false,
      "inputs": [
        {
          "indexed": true,
          "internalType": "address",
          "name": "owner",
          "type": "address"
        },
        {
          "indexed": true,
          "internalType": "address",
          "name": "spender",
          "type": "address"
        },
        {
          "indexed": false,
          "internalType": "uint256",
          "name": "value",
          "type": "uint256"
        }
      ],
      "name": "Approval",
      "type": "event"
    },
    {
      "anonymous": false,
      "inputs": [
        {
          "indexed": true,
          "internalType": "address",
          "name": "previousOwner",
          "type": "address"
        },
        {
          "indexed": true,
          "internalType": "address",
          "name": "newOwner",
          "type": "address"
        }
      ],
      "name": "OwnershipTransferred",
      "type": "event"
    },
    {
      "anonymous": false,
      "inputs": [
        {
          "indexed": true,
          "internalType": "address",
          "name": "from",
          "type": "address"
        },
        {
          "indexed": true,
          "internalType": "address",
          "name": "to",
          "type": "address"
        },
        {
          "indexed": false,
          "internalType": "uint256",
          "name": "value",
          "type": "uint256"
        }
      ],
      "name": "Transfer",
      "type": "event"
    },
    {
      "inputs": [],
      "name": "TOKEN_DECIMALS",
      "outputs": [
        {
          "internalType": "uint8",
          "name": "",
          "type": "uint8"
        }
      ],
      "stateMutability": "view",
      "type": "function",
      "constant": true
    },
    {
      "inputs": [],
      "name": "TOKEN_INITIAL_SUPPLY",
      "outputs": [
        {
          "internalType": "uint256",
          "name": "",
          "type": "uint256"
        }
      ],
      "stateMutability": "view",
      "type": "function",
      "constant": true
    },
    {
      "inputs": [],
      "name": "TOKEN_NAME",
      "outputs": [
        {
          "internalType": "string",
          "name": "",
          "type": "string"
        }
      ],
      "stateMutability": "view",
      "type": "function",
      "constant": true
    },
    {
      "inputs": [],
      "name": "TOKEN_SYMBOL",
      "outputs": [
        {
          "internalType": "string",
          "name": "",
          "type": "string"
        }
      ],
      "stateMutability": "view",
      "type": "function",
      "constant": true
    },
    {
      "inputs": [
        {
          "internalType": "address",
          "name": "owner",
          "type": "address"
        },
        {
          "internalType": "address",
          "name": "spender",
          "type": "address"
        }
      ],
      "name": "allowance",
      "outputs": [
        {
          "internalType": "uint256",
          "name": "",
          "type": "uint256"
        }
      ],
      "stateMutability": "view",
      "type": "function",
      "constant": true
    },
    {
      "inputs": [
        {
          "internalType": "address",
          "name": "spender",
          "type": "address"
        },
        {
          "internalType": "uint256",
          "name": "amount",
          "type": "uint256"
        }
      ],
      "name": "approve",
      "outputs": [
        {
          "internalType": "bool",
          "name": "",
          "type": "bool"
        }
      ],
      "stateMutability": "nonpayable",
      "type": "function"
    },
    {
      "inputs": [
        {
          "internalType": "address",
          "name": "account",
          "type": "address"
        }
      ],
      "name": "balanceOf",
      "outputs": [
        {
          "internalType": "uint256",
          "name": "",
          "type": "uint256"
        }
      ],
      "stateMutability": "view",
      "type": "function",
      "constant": true
    },
    {
      "inputs": [],
      "name": "decimals",
      "outputs": [
        {
          "internalType": "uint8",
          "name": "",
          "type": "uint8"
        }
      ],
      "stateMutability": "view",
      "type": "function",
      "constant": true
    },
    {
      "inputs": [
        {
          "internalType": "address",
          "name": "spender",
          "type": "address"
        },
        {
          "internalType": "uint256",
          "name": "subtractedValue",
          "type": "uint256"
        }
      ],
      "name": "decreaseAllowance",
      "outputs": [
        {
          "internalType": "bool",
          "name": "",
          "type": "bool"
        }
      ],
      "stateMutability": "nonpayable",
      "type": "function"
    },
    {
      "inputs": [
        {
          "internalType": "address",
          "name": "spender",
          "type": "address"
        },
        {
          "internalType": "uint256",
          "name": "addedValue",
          "type": "uint256"
        }
      ],
      "name": "increaseAllowance",
      "outputs": [
        {
          "internalType": "bool",
          "name": "",
          "type": "bool"
        }
      ],
      "stateMutability": "nonpayable",
      "type": "function"
    },
    {
      "inputs": [],
      "name": "name",
      "outputs": [
        {
          "internalType": "string",
          "name": "",
          "type": "string"
        }
      ],
      "stateMutability": "view",
      "type": "function",
      "constant": true
    },
    {
      "inputs": [],
      "name": "owner",
      "outputs": [
        {
          "internalType": "address",
          "name": "",
          "type": "address"
        }
      ],
      "stateMutability": "view",
      "type": "function",
      "constant": true
    },
    {
      "inputs": [],
      "name": "renounceOwnership",
      "outputs": [],
      "stateMutability": "nonpayable",
      "type": "function"
    },
    {
      "inputs": [],
      "name": "symbol",
      "outputs": [
        {
          "internalType": "string",
          "name": "",
          "type": "string"
        }
      ],
      "stateMutability": "view",
      "type": "function",
      "constant": true
    },
    {
      "inputs": [],
      "name": "totalSupply",
      "outputs": [
        {
          "internalType": "uint256",
          "name": "",
          "type": "uint256"
        }
      ],
      "stateMutability": "view",
      "type": "function",
      "constant": true
    },
    {
      "inputs": [
        {
          "internalType": "address",
          "name": "recipient",
          "type": "address"
        },
        {
          "internalType": "uint256",
          "name": "amount",
          "type": "uint256"
        }
      ],
      "name": "transfer",
      "outputs": [
        {
          "internalType": "bool",
          "name": "",
          "type": "bool"
        }
      ],
      "stateMutability": "nonpayable",
      "type": "function"
    },
    {
      "inputs": [
        {
          "internalType": "address",
          "name": "sender",
          "type": "address"
        },
        {
          "internalType": "address",
          "name": "recipient",
          "type": "address"
        },
        {
          "internalType": "uint256",
          "name": "amount",
          "type": "uint256"
        }
      ],
      "name": "transferFrom",
      "outputs": [
        {
          "internalType": "bool",
          "name": "",
          "type": "bool"
        }
      ],
      "stateMutability": "nonpayable",
      "type": "function"
    },
    {
      "inputs": [
        {
          "internalType": "address",
          "name": "newOwner",
          "type": "address"
        }
      ],
      "name": "transferOwnership",
      "outputs": [],
      "stateMutability": "nonpayable",
      "type": "function"
    }
  ],
  "bytecode": "0x60806040523480156200001157600080fd5b506040518060400160405280600b81526020017f576865657a79546f6b656e0000000000000000000000000000000000000000008152506040518060400160405280600681526020017f574845455a5900000000000000000000000000000000000000000000000000008152508160039080519060200190620000969291906200035d565b508060049080519060200190620000af9291906200035d565b505050620000d2620000c66200010c60201b60201c565b6200011460201b60201c565b6200010633601260ff16600a620000ea919062000568565b620f4240620000fa9190620006a5565b620001da60201b60201c565b620007b1565b600033905090565b6000600560009054906101000a900473ffffffffffffffffffffffffffffffffffffffff16905081600560006101000a81548173ffffffffffffffffffffffffffffffffffffffff021916908373ffffffffffffffffffffffffffffffffffffffff1602179055508173ffffffffffffffffffffffffffffffffffffffff168173ffffffffffffffffffffffffffffffffffffffff167f8be0079c531659141344cd1fd0a4f28419497f9722a3daafe3b4186f6b6457e060405160405180910390a35050565b600073ffffffffffffffffffffffffffffffffffffffff168273ffffffffffffffffffffffffffffffffffffffff1614156200024d576040517f08c379a0000000000000000000000000000000000000000000000000000000008152600401620002449062000460565b60405180910390fd5b62000261600083836200035360201b60201c565b8060026000828254620002759190620004b0565b92505081905550806000808473ffffffffffffffffffffffffffffffffffffffff1673ffffffffffffffffffffffffffffffffffffffff1681526020019081526020016000206000828254620002cc9190620004b0565b925050819055508173ffffffffffffffffffffffffffffffffffffffff16600073ffffffffffffffffffffffffffffffffffffffff167fddf252ad1be2c89b69c2b068fc378daa952ba7f163c4a11628f55a4df523b3ef8360405162000333919062000482565b60405180910390a36200034f600083836200035860201b60201c565b5050565b505050565b505050565b8280546200036b9062000710565b90600052602060002090601f0160209004810192826200038f5760008555620003db565b82601f10620003aa57805160ff1916838001178555620003db565b82800160010185558215620003db579182015b82811115620003da578251825591602001919060010190620003bd565b5b509050620003ea9190620003ee565b5090565b5b8082111562000409576000816000905550600101620003ef565b5090565b60006200041c601f836200049f565b91507f45524332303a206d696e7420746f20746865207a65726f2061646472657373006000830152602082019050919050565b6200045a8162000706565b82525050565b600060208201905081810360008301526200047b816200040d565b9050919050565b60006020820190506200049960008301846200044f565b92915050565b600082825260208201905092915050565b6000620004bd8262000706565b9150620004ca8362000706565b9250827fffffffffffffffffffffffffffffffffffffffffffffffffffffffffffffffff0382111562000502576200050162000746565b5b828201905092915050565b6000808291508390505b60018511156200055f5780860481111562000537576200053662000746565b5b6001851615620005475780820291505b80810290506200055785620007a4565b945062000517565b94509492505050565b6000620005758262000706565b9150620005828362000706565b9250620005b17fffffffffffffffffffffffffffffffffffffffffffffffffffffffffffffffff8484620005b9565b905092915050565b600082620005cb57600190506200069e565b81620005db57600090506200069e565b8160018114620005f45760028114620005ff5762000635565b60019150506200069e565b60ff84111562000614576200061362000746565b5b8360020a9150848211156200062e576200062d62000746565b5b506200069e565b5060208310610133831016604e8410600b84101617156200066f5782820a90508381111562000669576200066862000746565b5b6200069e565b6200067e84848460016200050d565b9250905081840481111562000698576200069762000746565b5b81810290505b9392505050565b6000620006b28262000706565b9150620006bf8362000706565b9250817fffffffffffffffffffffffffffffffffffffffffffffffffffffffffffffffff0483118215151615620006fb57620006fa62000746565b5b828202905092915050565b6000819050919050565b600060028204905060018216806200072957607f821691505b6020821081141562000740576200073f62000775565b5b50919050565b7f4e487b7100000000000000000000000000000000000000000000000000000000600052601160045260246000fd5b7f4e487b7100000000000000000000000000000000000000000000000000000000600052602260045260246000fd5b60008160011c9050919050565b611a5b80620007c16000396000f3fe608060405234801561001057600080fd5b50600436106101165760003560e01c80635b7f415c116100a257806395d89b411161007157806395d89b41146102d5578063a457c2d7146102f3578063a9059cbb14610323578063dd62ed3e14610353578063f2fde38b1461038357610116565b80635b7f415c1461025f57806370a082311461027d578063715018a6146102ad5780638da5cb5b146102b757610116565b806323b872dd116100e957806323b872dd146101a55780632a905318146101d5578063313ce567146101f357806336c20dcf14610211578063395093511461022f57610116565b806306fdde031461011b578063095ea7b31461013957806318160ddd146101695780631882140014610187575b600080fd5b61012361039f565b604051610130919061150c565b60405180910390f35b610153600480360381019061014e91906110b5565b610431565b60405161016091906114f1565b60405180910390f35b61017161044f565b60405161017e919061164e565b60405180910390f35b61018f610459565b60405161019c919061150c565b60405180910390f35b6101bf60048036038101906101ba9190611066565b610492565b6040516101cc91906114f1565b60405180910390f35b6101dd61058a565b6040516101ea919061150c565b60405180910390f35b6101fb6105c3565b6040516102089190611669565b60405180910390f35b6102196105cc565b604051610226919061164e565b60405180910390f35b610249600480360381019061024491906110b5565b6105ee565b60405161025691906114f1565b60405180910390f35b61026761069a565b6040516102749190611669565b60405180910390f35b61029760048036038101906102929190611001565b61069f565b6040516102a4919061164e565b60405180910390f35b6102b56106e7565b005b6102bf61076f565b6040516102cc91906114d6565b60405180910390f35b6102dd610799565b6040516102ea919061150c565b60405180910390f35b61030d600480360381019061030891906110b5565b61082b565b60405161031a91906114f1565b60405180910390f35b61033d600480360381019061033891906110b5565b610916565b60405161034a91906114f1565b60405180910390f35b61036d6004803603810190610368919061102a565b610934565b60405161037a919061164e565b60405180910390f35b61039d60048036038101906103989190611001565b6109bb565b005b6060600380546103ae90611949565b80601f01602080910402602001604051908101604052809291908181526020018280546103da90611949565b80156104275780601f106103fc57610100808354040283529160200191610427565b820191906000526020600020905b81548152906001019060200180831161040a57829003601f168201915b5050505050905090565b600061044561043e610ab3565b8484610abb565b6001905092915050565b6000600254905090565b6040518060400160405280600b81526020017f576865657a79546f6b656e00000000000000000000000000000000000000000081525081565b600061049f848484610c86565b6000600160008673ffffffffffffffffffffffffffffffffffffffff1673ffffffffffffffffffffffffffffffffffffffff16815260200190815260200160002060006104ea610ab3565b73ffffffffffffffffffffffffffffffffffffffff1673ffffffffffffffffffffffffffffffffffffffff1681526020019081526020016000205490508281101561056a576040517f08c379a0000000000000000000000000000000000000000000000000000000008152600401610561906115ae565b60405180910390fd5b61057e85610576610ab3565b858403610abb565b60019150509392505050565b6040518060400160405280600681526020017f574845455a59000000000000000000000000000000000000000000000000000081525081565b60006012905090565b601260ff16600a6105dd9190611749565b620f42406105eb9190611867565b81565b60006106906105fb610ab3565b848460016000610609610ab3565b73ffffffffffffffffffffffffffffffffffffffff1673ffffffffffffffffffffffffffffffffffffffff16815260200190815260200160002060008873ffffffffffffffffffffffffffffffffffffffff1673ffffffffffffffffffffffffffffffffffffffff1681526020019081526020016000205461068b91906116a0565b610abb565b6001905092915050565b601281565b60008060008373ffffffffffffffffffffffffffffffffffffffff1673ffffffffffffffffffffffffffffffffffffffff168152602001908152602001600020549050919050565b6106ef610ab3565b73ffffffffffffffffffffffffffffffffffffffff1661070d61076f565b73ffffffffffffffffffffffffffffffffffffffff1614610763576040517f08c379a000000000000000000000000000000000000000000000000000000000815260040161075a906115ce565b60405180910390fd5b61076d6000610f07565b565b6000600560009054906101000a900473ffffffffffffffffffffffffffffffffffffffff16905090565b6060600480546107a890611949565b80601f01602080910402602001604051908101604052809291908181526020018280546107d490611949565b80156108215780601f106107f657610100808354040283529160200191610821565b820191906000526020600020905b81548152906001019060200180831161080457829003601f168201915b5050505050905090565b6000806001600061083a610ab3565b73ffffffffffffffffffffffffffffffffffffffff1673ffffffffffffffffffffffffffffffffffffffff16815260200190815260200160002060008573ffffffffffffffffffffffffffffffffffffffff1673ffffffffffffffffffffffffffffffffffffffff168152602001908152602001600020549050828110156108f7576040517f08c379a00000000000000000000000000000000000000000000000000000000081526004016108ee9061162e565b60405180910390fd5b61090b610902610ab3565b85858403610abb565b600191505092915050565b600061092a610923610ab3565b8484610c86565b6001905092915050565b6000600160008473ffffffffffffffffffffffffffffffffffffffff1673ffffffffffffffffffffffffffffffffffffffff16815260200190815260200160002060008373ffffffffffffffffffffffffffffffffffffffff1673ffffffffffffffffffffffffffffffffffffffff16815260200190815260200160002054905092915050565b6109c3610ab3565b73ffffffffffffffffffffffffffffffffffffffff166109e161076f565b73ffffffffffffffffffffffffffffffffffffffff1614610a37576040517f08c379a0000000000000000000000000000000000000000000000000000000008152600401610a2e906115ce565b60405180910390fd5b600073ffffffffffffffffffffffffffffffffffffffff168173ffffffffffffffffffffffffffffffffffffffff161415610aa7576040517f08c379a0000000000000000000000000000000000000000000000000000000008152600401610a9e9061154e565b60405180910390fd5b610ab081610f07565b50565b600033905090565b600073ffffffffffffffffffffffffffffffffffffffff168373ffffffffffffffffffffffffffffffffffffffff161415610b2b576040517f08c379a0000000000000000000000000000000000000000000000000000000008152600401610b229061160e565b60405180910390fd5b600073ffffffffffffffffffffffffffffffffffffffff168273ffffffffffffffffffffffffffffffffffffffff161415610b9b576040517f08c379a0000000000000000000000000000000000000000000000000000000008152600401610b929061156e565b60405180910390fd5b80600160008573ffffffffffffffffffffffffffffffffffffffff1673ffffffffffffffffffffffffffffffffffffffff16815260200190815260200160002060008473ffffffffffffffffffffffffffffffffffffffff1673ffffffffffffffffffffffffffffffffffffffff168152602001908152602001600020819055508173ffffffffffffffffffffffffffffffffffffffff168373ffffffffffffffffffffffffffffffffffffffff167f8c5be1e5ebec7d5bd14f71427d1e84f3dd0314c0f7b2291e5b200ac8c7c3b92583604051610c79919061164e565b60405180910390a3505050565b600073ffffffffffffffffffffffffffffffffffffffff168373ffffffffffffffffffffffffffffffffffffffff161415610cf6576040517f08c379a0000000000000000000000000000000000000000000000000000000008152600401610ced906115ee565b60405180910390fd5b600073ffffffffffffffffffffffffffffffffffffffff168273ffffffffffffffffffffffffffffffffffffffff161415610d66576040517f08c379a0000000000000000000000000000000000000000000000000000000008152600401610d5d9061152e565b60405180910390fd5b610d71838383610fcd565b60008060008573ffffffffffffffffffffffffffffffffffffffff1673ffffffffffffffffffffffffffffffffffffffff16815260200190815260200160002054905081811015610df7576040517f08c379a0000000000000000000000000000000000000000000000000000000008152600401610dee9061158e565b60405180910390fd5b8181036000808673ffffffffffffffffffffffffffffffffffffffff1673ffffffffffffffffffffffffffffffffffffffff16815260200190815260200160002081905550816000808573ffffffffffffffffffffffffffffffffffffffff1673ffffffffffffffffffffffffffffffffffffffff1681526020019081526020016000206000828254610e8a91906116a0565b925050819055508273ffffffffffffffffffffffffffffffffffffffff168473ffffffffffffffffffffffffffffffffffffffff167fddf252ad1be2c89b69c2b068fc378daa952ba7f163c4a11628f55a4df523b3ef84604051610eee919061164e565b60405180910390a3610f01848484610fd2565b50505050565b6000600560009054906101000a900473ffffffffffffffffffffffffffffffffffffffff16905081600560006101000a81548173ffffffffffffffffffffffffffffffffffffffff021916908373ffffffffffffffffffffffffffffffffffffffff1602179055508173ffffffffffffffffffffffffffffffffffffffff168173ffffffffffffffffffffffffffffffffffffffff167f8be0079c531659141344cd1fd0a4f28419497f9722a3daafe3b4186f6b6457e060405160405180910390a35050565b505050565b505050565b600081359050610fe6816119f7565b92915050565b600081359050610ffb81611a0e565b92915050565b60006020828403121561101357600080fd5b600061102184828501610fd7565b91505092915050565b6000806040838503121561103d57600080fd5b600061104b85828601610fd7565b925050602061105c85828601610fd7565b9150509250929050565b60008060006060848603121561107b57600080fd5b600061108986828701610fd7565b935050602061109a86828701610fd7565b92505060406110ab86828701610fec565b9150509250925092565b600080604083850312156110c857600080fd5b60006110d685828601610fd7565b92505060206110e785828601610fec565b9150509250929050565b6110fa816118c1565b82525050565b611109816118d3565b82525050565b600061111a82611684565b611124818561168f565b9350611134818560208601611916565b61113d816119d9565b840191505092915050565b600061115560238361168f565b91507f45524332303a207472616e7366657220746f20746865207a65726f206164647260008301527f65737300000000000000000000000000000000000000000000000000000000006020830152604082019050919050565b60006111bb60268361168f565b91507f4f776e61626c653a206e6577206f776e657220697320746865207a65726f206160008301527f64647265737300000000000000000000000000000000000000000000000000006020830152604082019050919050565b600061122160228361168f565b91507f45524332303a20617070726f766520746f20746865207a65726f20616464726560008301527f73730000000000000000000000000000000000000000000000000000000000006020830152604082019050919050565b600061128760268361168f565b91507f45524332303a207472616e7366657220616d6f756e742065786365656473206260008301527f616c616e636500000000000000000000000000000000000000000000000000006020830152604082019050919050565b60006112ed60288361168f565b91507f45524332303a207472616e7366657220616d6f756e742065786365656473206160008301527f6c6c6f77616e63650000000000000000000000000000000000000000000000006020830152604082019050919050565b600061135360208361168f565b91507f4f776e61626c653a2063616c6c6572206973206e6f7420746865206f776e65726000830152602082019050919050565b600061139360258361168f565b91507f45524332303a207472616e736665722066726f6d20746865207a65726f20616460008301527f64726573730000000000000000000000000000000000000000000000000000006020830152604082019050919050565b60006113f960248361168f565b91507f45524332303a20617070726f76652066726f6d20746865207a65726f2061646460008301527f72657373000000000000000000000000000000000000000000000000000000006020830152604082019050919050565b600061145f60258361168f565b91507f45524332303a2064656372656173656420616c6c6f77616e63652062656c6f7760008301527f207a65726f0000000000000000000000000000000000000000000000000000006020830152604082019050919050565b6114c1816118ff565b82525050565b6114d081611909565b82525050565b60006020820190506114eb60008301846110f1565b92915050565b60006020820190506115066000830184611100565b92915050565b60006020820190508181036000830152611526818461110f565b905092915050565b6000602082019050818103600083015261154781611148565b9050919050565b60006020820190508181036000830152611567816111ae565b9050919050565b6000602082019050818103600083015261158781611214565b9050919050565b600060208201905081810360008301526115a78161127a565b9050919050565b600060208201905081810360008301526115c7816112e0565b9050919050565b600060208201905081810360008301526115e781611346565b9050919050565b6000602082019050818103600083015261160781611386565b9050919050565b60006020820190508181036000830152611627816113ec565b9050919050565b6000602082019050818103600083015261164781611452565b9050919050565b600060208201905061166360008301846114b8565b92915050565b600060208201905061167e60008301846114c7565b92915050565b600081519050919050565b600082825260208201905092915050565b60006116ab826118ff565b91506116b6836118ff565b9250827fffffffffffffffffffffffffffffffffffffffffffffffffffffffffffffffff038211156116eb576116ea61197b565b5b828201905092915050565b6000808291508390505b60018511156117405780860481111561171c5761171b61197b565b5b600185161561172b5780820291505b8081029050611739856119ea565b9450611700565b94509492505050565b6000611754826118ff565b915061175f836118ff565b925061178c7fffffffffffffffffffffffffffffffffffffffffffffffffffffffffffffffff8484611794565b905092915050565b6000826117a45760019050611860565b816117b25760009050611860565b81600181146117c857600281146117d257611801565b6001915050611860565b60ff8411156117e4576117e361197b565b5b8360020a9150848211156117fb576117fa61197b565b5b50611860565b5060208310610133831016604e8410600b84101617156118365782820a9050838111156118315761183061197b565b5b611860565b61184384848460016116f6565b9250905081840481111561185a5761185961197b565b5b81810290505b9392505050565b6000611872826118ff565b915061187d836118ff565b9250817fffffffffffffffffffffffffffffffffffffffffffffffffffffffffffffffff04831182151516156118b6576118b561197b565b5b828202905092915050565b60006118cc826118df565b9050919050565b60008115159050919050565b600073ffffffffffffffffffffffffffffffffffffffff82169050919050565b6000819050919050565b600060ff82169050919050565b60005b83811015611934578082015181840152602081019050611919565b83811115611943576000848401525b50505050565b6000600282049050600182168061196157607f821691505b60208210811415611975576119746119aa565b5b50919050565b7f4e487b7100000000000000000000000000000000000000000000000000000000600052601160045260246000fd5b7f4e487b7100000000000000000000000000000000000000000000000000000000600052602260045260246000fd5b6000601f19601f8301169050919050565b60008160011c9050919050565b611a00816118c1565b8114611a0b57600080fd5b50565b611a17816118ff565b8114611a2257600080fd5b5056fea2646970667358221220ed249fece2a86dbae2487db9bfa0a54cb6199dfa769b517ecfe2c0de0b21226364736f6c63430008000033",
  "immutableReferences": {},
  "source": "// SPDX-License-Identifier: MIT\r\npragma solidity >=0.4.22 <0.9.0;\r\n\r\nimport \"@openzeppelin/contracts/token/ERC20/ERC20.sol\";\r\nimport \"@openzeppelin/contracts/access/Ownable.sol\";\r\n\r\n/**\r\n * @title SimpleToken\r\n * @dev Very simple ERC20 Token example, where all tokens are pre-assigned to the creator.\r\n * Note they can later distribute these tokens as they wish using `transfer` and other `ERC20` functions.\r\n */\r\ncontract WheezyToken is ERC20, Ownable {\r\n\r\n    string public constant TOKEN_NAME = \"WheezyToken\";\r\n    string public constant TOKEN_SYMBOL = \"WHEEZY\";\r\n    uint8 public constant TOKEN_DECIMALS = 18;\r\n    uint public constant TOKEN_INITIAL_SUPPLY  = 1000000 * (10 ** uint256(TOKEN_DECIMALS));\r\n\r\n    /**\r\n     * @dev Constructor that gives msg.sender all of existing tokens.\r\n     */\r\n    constructor() ERC20(TOKEN_NAME, TOKEN_SYMBOL) {\r\n        _mint(msg.sender, TOKEN_INITIAL_SUPPLY);\r\n    }\r\n\r\n}",
  "sourcePath": "C:/ProgramsOfMine/wamp64/www/workspace/BLOCKCHAIN_APPS/eth-dapp-with-truffle-drizzle-react/03-erc20-dapp/contracts/WheezyToken.sol",
  "compiler": {
    "name": "solc",
    "version": "0.8.0+commit.c7dfd78e.Emscripten.clang"
  },
  "schemaVersion": "3.4.1",
  "updatedAt": "2021-08-16T09:49:12.602Z",
  "networkType": "ethereum",
  "devdoc": {
    "details": "Very simple ERC20 Token example, where all tokens are pre-assigned to the creator. Note they can later distribute these tokens as they wish using `transfer` and other `ERC20` functions.",
    "kind": "dev",
    "methods": {
      "allowance(address,address)": {
        "details": "See {IERC20-allowance}."
      },
      "approve(address,uint256)": {
        "details": "See {IERC20-approve}. Requirements: - `spender` cannot be the zero address."
      },
      "balanceOf(address)": {
        "details": "See {IERC20-balanceOf}."
      },
      "constructor": {
        "details": "Constructor that gives msg.sender all of existing tokens."
      },
      "decimals()": {
        "details": "Returns the number of decimals used to get its user representation. For example, if `decimals` equals `2`, a balance of `505` tokens should be displayed to a user as `5,05` (`505 / 10 ** 2`). Tokens usually opt for a value of 18, imitating the relationship between Ether and Wei. This is the value {ERC20} uses, unless this function is overridden; NOTE: This information is only used for _display_ purposes: it in no way affects any of the arithmetic of the contract, including {IERC20-balanceOf} and {IERC20-transfer}."
      },
      "decreaseAllowance(address,uint256)": {
        "details": "Atomically decreases the allowance granted to `spender` by the caller. This is an alternative to {approve} that can be used as a mitigation for problems described in {IERC20-approve}. Emits an {Approval} event indicating the updated allowance. Requirements: - `spender` cannot be the zero address. - `spender` must have allowance for the caller of at least `subtractedValue`."
      },
      "increaseAllowance(address,uint256)": {
        "details": "Atomically increases the allowance granted to `spender` by the caller. This is an alternative to {approve} that can be used as a mitigation for problems described in {IERC20-approve}. Emits an {Approval} event indicating the updated allowance. Requirements: - `spender` cannot be the zero address."
      },
      "name()": {
        "details": "Returns the name of the token."
      },
      "owner()": {
        "details": "Returns the address of the current owner."
      },
      "renounceOwnership()": {
        "details": "Leaves the contract without owner. It will not be possible to call `onlyOwner` functions anymore. Can only be called by the current owner. NOTE: Renouncing ownership will leave the contract without an owner, thereby removing any functionality that is only available to the owner."
      },
      "symbol()": {
        "details": "Returns the symbol of the token, usually a shorter version of the name."
      },
      "totalSupply()": {
        "details": "See {IERC20-totalSupply}."
      },
      "transfer(address,uint256)": {
        "details": "See {IERC20-transfer}. Requirements: - `recipient` cannot be the zero address. - the caller must have a balance of at least `amount`."
      },
      "transferFrom(address,address,uint256)": {
        "details": "See {IERC20-transferFrom}. Emits an {Approval} event indicating the updated allowance. This is not required by the EIP. See the note at the beginning of {ERC20}. Requirements: - `sender` and `recipient` cannot be the zero address. - `sender` must have a balance of at least `amount`. - the caller must have allowance for ``sender``'s tokens of at least `amount`."
      },
      "transferOwnership(address)": {
        "details": "Transfers ownership of the contract to a new account (`newOwner`). Can only be called by the current owner."
      }
    },
    "title": "SimpleToken",
    "version": 1
  },
  "userdoc": {
    "kind": "user",
    "methods": {},
    "version": 1
  }
}