{
  "contractName": "ToDo",
  "abi": [
    {
      "inputs": [],
      "stateMutability": "nonpayable",
      "type": "constructor"
    },
    {
      "anonymous": false,
      "inputs": [
        {
          "indexed": false,
          "internalType": "uint256",
          "name": "id",
          "type": "uint256"
        },
        {
          "indexed": false,
          "internalType": "uint256",
          "name": "date",
          "type": "uint256"
        },
        {
          "indexed": false,
          "internalType": "string",
          "name": "content",
          "type": "string"
        },
        {
          "indexed": false,
          "internalType": "string",
          "name": "author",
          "type": "string"
        },
        {
          "indexed": false,
          "internalType": "bool",
          "name": "done",
          "type": "bool"
        }
      ],
      "name": "TaskCreated",
      "type": "event"
    },
    {
      "anonymous": false,
      "inputs": [
        {
          "indexed": false,
          "internalType": "uint256",
          "name": "id",
          "type": "uint256"
        },
        {
          "indexed": false,
          "internalType": "bool",
          "name": "done",
          "type": "bool"
        },
        {
          "indexed": false,
          "internalType": "uint256",
          "name": "dateComplete",
          "type": "uint256"
        }
      ],
      "name": "TaskStatusToggled",
      "type": "event"
    },
    {
      "inputs": [
        {
          "internalType": "string",
          "name": "content",
          "type": "string"
        },
        {
          "internalType": "string",
          "name": "author",
          "type": "string"
        }
      ],
      "name": "createTask",
      "outputs": [],
      "stateMutability": "nonpayable",
      "type": "function"
    },
    {
      "inputs": [],
      "name": "getTasks",
      "outputs": [
        {
          "components": [
            {
              "internalType": "uint256",
              "name": "id",
              "type": "uint256"
            },
            {
              "internalType": "uint256",
              "name": "date",
              "type": "uint256"
            },
            {
              "internalType": "string",
              "name": "content",
              "type": "string"
            },
            {
              "internalType": "string",
              "name": "author",
              "type": "string"
            },
            {
              "internalType": "uint256",
              "name": "dateComplete",
              "type": "uint256"
            },
            {
              "internalType": "bool",
              "name": "done",
              "type": "bool"
            }
          ],
          "internalType": "struct ToDo.Task[]",
          "name": "",
          "type": "tuple[]"
        }
      ],
      "stateMutability": "view",
      "type": "function",
      "constant": true
    }
  ],
  "bytecode": "0x608060405234801561001057600080fd5b5060008080556040805160c08101825282815242602080830182815284518086018652600c81526b4d7920636f6e74656e74203160a01b818401528486019081528551808701909652600586526469636f203160d81b868401526060850195909552608084019290925260a083018590526001805480820182559552825160069095027fb10e2d527612073b26eecdfd717e6a320cf44b4afac2b0732d9fcbe2b7fa0cf6810195865591517fb10e2d527612073b26eecdfd717e6a320cf44b4afac2b0732d9fcbe2b7fa0cf783015592518051929493610117937fb10e2d527612073b26eecdfd717e6a320cf44b4afac2b0732d9fcbe2b7fa0cf890930192910190610171565b5060608201518051610133916003840191602090910190610171565b506080820151600482015560a0909101516005909101805460ff191691151591909117905560008054908061016783610245565b919050555061026c565b82805461017d9061020a565b90600052602060002090601f01602090048101928261019f57600085556101e5565b82601f106101b857805160ff19168380011785556101e5565b828001600101855582156101e5579182015b828111156101e55782518255916020019190600101906101ca565b506101f19291506101f5565b5090565b5b808211156101f157600081556001016101f6565b60028104600182168061021e57607f821691505b6020821081141561023f57634e487b7160e01b600052602260045260246000fd5b50919050565b600060001982141561026557634e487b7160e01b81526011600452602481fd5b5060010190565b6106f38061027b6000396000f3fe608060405234801561001057600080fd5b50600436106100365760003560e01c806304a87e381461003b578063292a458514610059575b600080fd5b61004361006e565b6040516100509190610550565b60405180910390f35b61006c6100673660046104a4565b610224565b005b60606001805480602002602001604051908101604052809291908181526020016000905b8282101561021b57838290600052602060002090600602016040518060c001604052908160008201548152602001600182015481526020016002820180546100d990610645565b80601f016020809104026020016040519081016040528092919081815260200182805461010590610645565b80156101525780601f1061012757610100808354040283529160200191610152565b820191906000526020600020905b81548152906001019060200180831161013557829003601f168201915b5050505050815260200160038201805461016b90610645565b80601f016020809104026020016040519081016040528092919081815260200182805461019790610645565b80156101e45780601f106101b9576101008083540402835291602001916101e4565b820191906000526020600020905b8154815290600101906020018083116101c757829003601f168201915b5050509183525050600482015460208083019190915260059092015460ff1615156040909101529082526001929092019101610092565b50505050905090565b60008054908061023383610680565b90915550506040805160c081018252600080548252426020808401918252938301868152606084018690526080840183905260a08401839052600180548082018255935283517fb10e2d527612073b26eecdfd717e6a320cf44b4afac2b0732d9fcbe2b7fa0cf6600690940293840190815591517fb10e2d527612073b26eecdfd717e6a320cf44b4afac2b0732d9fcbe2b7fa0cf784015551805193949193610303937fb10e2d527612073b26eecdfd717e6a320cf44b4afac2b0732d9fcbe2b7fa0cf80192919091019061038a565b506060820151805161031f91600384019160209091019061038a565b506080820151600482015560a0909101516005909101805460ff1916911515919091179055600080546040517fb322bdd3250d405f7845d27fa1f0753f8f7e18e40886bc254b89005c3e9c03249261037e9291429187918791906105ff565b60405180910390a15050565b82805461039690610645565b90600052602060002090601f0160209004810192826103b857600085556103fe565b82601f106103d157805160ff19168380011785556103fe565b828001600101855582156103fe579182015b828111156103fe5782518255916020019190600101906103e3565b5061040a92915061040e565b5090565b5b8082111561040a576000815560010161040f565b600082601f830112610433578081fd5b813567ffffffffffffffff8082111561044e5761044e6106a7565b604051601f8301601f191681016020018281118282101715610472576104726106a7565b604052828152848301602001861015610489578384fd5b82602086016020830137918201602001929092529392505050565b600080604083850312156104b6578182fd5b823567ffffffffffffffff808211156104cd578384fd5b6104d986838701610423565b935060208501359150808211156104ee578283fd5b506104fb85828601610423565b9150509250929050565b60008151808452815b8181101561052a5760208185018101518683018201520161050e565b8181111561053b5782602083870101525b50601f01601f19169290920160200192915050565b60208082528251828201819052600091906040908185019080840286018301878501865b838110156105f157603f19898403018552815160c08151855288820151898601528782015181898701526105aa82870182610505565b915050606080830151868303828801526105c48382610505565b6080858101519089015260a094850151151594909701939093525050509386019390860190600101610574565b509098975050505050505050565b600086825285602083015260a0604083015261061e60a0830186610505565b82810360608401526106308186610505565b91505082151560808301529695505050505050565b60028104600182168061065957607f821691505b6020821081141561067a57634e487b7160e01b600052602260045260246000fd5b50919050565b60006000198214156106a057634e487b7160e01b81526011600452602481fd5b5060010190565b634e487b7160e01b600052604160045260246000fdfea2646970667358221220175b3c1ffaf8fea1a7846f082838b9751d2e3634da1887c992f3f0f1998c058a64736f6c63430008000033",
  "immutableReferences": {},
  "source": "// SPDX-License-Identifier: MIT\npragma solidity >=0.4.22 <0.9.0;\n\ncontract ToDo {\n  struct Task {\n    uint id;\n    uint date;\n    string content;\n    string author;\n    uint dateComplete;\n    bool done;\n  }\n\n  uint lastTaskId;\n//  uint[] taskIds;\n//  mapping(uint => Task) tasks;\n  Task[] tasksArray;\n//  mapping(uint => Task) tasksMapping;\n\n  event TaskCreated(uint id, uint date, string content, string author, bool done);\n  event TaskStatusToggled(uint id, bool done, uint dateComplete);\n\n  constructor() public {\n    lastTaskId = 0;\n//    tasks[lastTaskId] = Task(lastTaskId, block.timestamp, \"My content 1\", \"ico 1\", block.timestamp, false);\n//    taskIds.push(lastTaskId);\n    tasksArray.push(Task(lastTaskId, block.timestamp, \"My content 1\", \"ico 1\", block.timestamp, false));\n    lastTaskId++;\n  }\n\n  function createTask(string memory content, string memory author) public {\n    lastTaskId++;\n//    tasks[lastTaskId] = Task(lastTaskId, block.timestamp, content, author, 0, false);\n//    taskIds.push(lastTaskId);\n    tasksArray.push(Task(lastTaskId, block.timestamp, content, author, 0, false));\n\n    emit TaskCreated(lastTaskId, block.timestamp, content, author, false);\n  }\n\n//  function getTaskIds() public view returns(uint[] memory) {\n//    return taskIds;\n//  }\n\n//  /**\n//   * Fixture method for frontend app testing purpose only\n//   */\n//  function getTaskFixtures() public view returns(uint, uint, string memory, string memory, bool) {\n//    return (0, block.timestamp, \"My content\", \"ico\", false);\n//  }\n  \n\n//  function getTask(uint _id) taskExists(_id) public view returns(uint, uint, string memory, string memory, bool, uint) {\n//    return (_id, tasks[_id].date, tasks[_id].content, tasks[_id].author, tasks[_id].done, tasks[_id].dateComplete);\n//  }\n\n  function getTasks() public view returns(Task[] memory) {\n    return tasksArray;\n  }\n\n//  function toggleDone(uint _id) taskExists(_id) public {\n//    Task memory task = tasks[_id];\n//    task.done = !task.done;\n//    task.dateComplete = task.done ? block.timestamp : 0;\n//\n//    emit TaskStatusToggled(_id, task.done, task.dateComplete);\n//  }\n\n  modifier taskExists(uint _id) {\n    if(/*tasks[_id].id == 0 || */ tasksArray[_id].id == 0) {\n      revert();\n    }\n    _;\n  }\n\n}",
  "sourcePath": "C:/ProgramsOfMine/wamp64/www/workspace/BLOCKCHAIN_APPS/eth-dapp-with-truffle-drizzle-react/02-todo-list-dapp/contracts/ToDo.sol",
  "compiler": {
    "name": "solc",
    "version": "0.8.0+commit.c7dfd78e.Emscripten.clang"
  },
  "schemaVersion": "3.4.1",
  "updatedAt": "2021-08-16T18:33:42.191Z",
  "networkType": "ethereum",
  "devdoc": {
    "kind": "dev",
    "methods": {},
    "version": 1
  },
  "userdoc": {
    "kind": "user",
    "methods": {},
    "version": 1
  }
}