{
  "contractName": "ToDo",
  "abi": [
    {
      "inputs": [],
      "stateMutability": "nonpayable",
      "type": "constructor"
    },
    {
      "anonymous": false,
      "inputs": [
        {
          "indexed": false,
          "internalType": "uint256",
          "name": "id",
          "type": "uint256"
        },
        {
          "indexed": false,
          "internalType": "uint256",
          "name": "date",
          "type": "uint256"
        },
        {
          "indexed": false,
          "internalType": "string",
          "name": "content",
          "type": "string"
        },
        {
          "indexed": false,
          "internalType": "string",
          "name": "author",
          "type": "string"
        },
        {
          "indexed": false,
          "internalType": "bool",
          "name": "done",
          "type": "bool"
        }
      ],
      "name": "TaskCreated",
      "type": "event"
    },
    {
      "anonymous": false,
      "inputs": [
        {
          "indexed": false,
          "internalType": "uint256",
          "name": "id",
          "type": "uint256"
        },
        {
          "indexed": false,
          "internalType": "uint256",
          "name": "dateComplete",
          "type": "uint256"
        },
        {
          "indexed": false,
          "internalType": "bool",
          "name": "done",
          "type": "bool"
        }
      ],
      "name": "TaskStatusToggled",
      "type": "event"
    },
    {
      "inputs": [
        {
          "internalType": "uint256",
          "name": "",
          "type": "uint256"
        }
      ],
      "name": "tasks",
      "outputs": [
        {
          "internalType": "uint256",
          "name": "id",
          "type": "uint256"
        },
        {
          "internalType": "uint256",
          "name": "date",
          "type": "uint256"
        },
        {
          "internalType": "uint256",
          "name": "dateComplete",
          "type": "uint256"
        },
        {
          "internalType": "bytes",
          "name": "content",
          "type": "bytes"
        },
        {
          "internalType": "bytes",
          "name": "author",
          "type": "bytes"
        },
        {
          "internalType": "bool",
          "name": "done",
          "type": "bool"
        }
      ],
      "stateMutability": "view",
      "type": "function",
      "constant": true
    },
    {
      "inputs": [
        {
          "internalType": "string",
          "name": "content",
          "type": "string"
        },
        {
          "internalType": "string",
          "name": "author",
          "type": "string"
        }
      ],
      "name": "createTask",
      "outputs": [],
      "stateMutability": "nonpayable",
      "type": "function"
    },
    {
      "inputs": [],
      "name": "getTaskIds",
      "outputs": [
        {
          "internalType": "uint256[]",
          "name": "",
          "type": "uint256[]"
        }
      ],
      "stateMutability": "view",
      "type": "function",
      "constant": true
    },
    {
      "inputs": [
        {
          "internalType": "uint256",
          "name": "_id",
          "type": "uint256"
        }
      ],
      "name": "getTask",
      "outputs": [
        {
          "internalType": "uint256",
          "name": "",
          "type": "uint256"
        },
        {
          "internalType": "uint256",
          "name": "",
          "type": "uint256"
        },
        {
          "internalType": "uint256",
          "name": "",
          "type": "uint256"
        },
        {
          "internalType": "bytes",
          "name": "",
          "type": "bytes"
        },
        {
          "internalType": "bytes",
          "name": "",
          "type": "bytes"
        },
        {
          "internalType": "bool",
          "name": "",
          "type": "bool"
        }
      ],
      "stateMutability": "view",
      "type": "function",
      "constant": true
    }
  ],
  "bytecode": "0x608060405234801561001057600080fd5b5060008055610907806100246000396000f3fe608060405234801561001057600080fd5b506004361061004c5760003560e01c80631d65e77e14610051578063292a45851461007f5780638d97767214610094578063bcd14805146100a7575b600080fd5b61006461005f3660046106c0565b6100bc565b6040516100769695949392919061080c565b60405180910390f35b61009261008d36600461065f565b610227565b005b6100646100a23660046106c0565b6103a3565b6100af6104ed565b6040516100769190610723565b60008181526002602081905260408220600181015491810154600582015460038301805486958695606095869588958c959293909260049091019160ff1690839061010690610859565b80601f016020809104026020016040519081016040528092919081815260200182805461013290610859565b801561017f5780601f106101545761010080835404028352916020019161017f565b820191906000526020600020905b81548152906001019060200180831161016257829003601f168201915b5050505050925081805461019290610859565b80601f01602080910402602001604051908101604052809291908181526020018280546101be90610859565b801561020b5780601f106101e05761010080835404028352916020019161020b565b820191906000526020600020905b8154815290600101906020018083116101ee57829003601f168201915b5050505050915095509550955095509550955091939550919395565b8151829082906102525760405162461bcd60e51b815260040161024990610767565b60405180910390fd5b60008151116102735760405162461bcd60e51b815260040161024990610797565b60008054908061028283610894565b90915550506040805160c08101825260008054808352426020808501918252848601848152606086018981526080870189905260a0870186905293855260028083529690942085518155915160018301559251948101949094555180519293926102f29260038501920190610545565b506080820151805161030e916004840191602090910190610545565b5060a091909101516005909101805460ff1916911515919091179055600080546001805480820182559083527fb10e2d527612073b26eecdfd717e6a320cf44b4afac2b0732d9fcbe2b7fa0cf6018190556040517fb322bdd3250d405f7845d27fa1f0753f8f7e18e40886bc254b89005c3e9c0324926103959291429189918991906107c6565b60405180910390a150505050565b6002602081905260009182526040909120805460018201549282015460038301805492949391926103d390610859565b80601f01602080910402602001604051908101604052809291908181526020018280546103ff90610859565b801561044c5780601f106104215761010080835404028352916020019161044c565b820191906000526020600020905b81548152906001019060200180831161042f57829003601f168201915b50505050509080600401805461046190610859565b80601f016020809104026020016040519081016040528092919081815260200182805461048d90610859565b80156104da5780601f106104af576101008083540402835291602001916104da565b820191906000526020600020905b8154815290600101906020018083116104bd57829003601f168201915b5050506005909301549192505060ff1686565b6060600180548060200260200160405190810160405280929190818152602001828054801561053b57602002820191906000526020600020905b815481526020019060010190808311610527575b5050505050905090565b82805461055190610859565b90600052602060002090601f01602090048101928261057357600085556105b9565b82601f1061058c57805160ff19168380011785556105b9565b828001600101855582156105b9579182015b828111156105b957825182559160200191906001019061059e565b506105c59291506105c9565b5090565b5b808211156105c557600081556001016105ca565b600082601f8301126105ee578081fd5b813567ffffffffffffffff80821115610609576106096108bb565b604051601f8301601f19168101602001828111828210171561062d5761062d6108bb565b604052828152848301602001861015610644578384fd5b82602086016020830137918201602001929092529392505050565b60008060408385031215610671578182fd5b823567ffffffffffffffff80821115610688578384fd5b610694868387016105de565b935060208501359150808211156106a9578283fd5b506106b6858286016105de565b9150509250929050565b6000602082840312156106d1578081fd5b5035919050565b60008151808452815b818110156106fd576020818501810151868301820152016106e1565b8181111561070e5782602083870101525b50601f01601f19169290920160200192915050565b6020808252825182820181905260009190848201906040850190845b8181101561075b5783518352928401929184019160010161073f565b50909695505050505050565b602080825260169082015275436f6e74656e742063616e277420626520656d70747960501b604082015260600190565b602080825260159082015274417574686f722063616e277420626520656d70747960581b604082015260600190565b600086825285602083015260a060408301526107e560a08301866106d8565b82810360608401526107f781866106d8565b91505082151560808301529695505050505050565b600087825286602083015285604083015260c0606083015261083160c08301866106d8565b828103608084015261084381866106d8565b91505082151560a0830152979650505050505050565b60028104600182168061086d57607f821691505b6020821081141561088e57634e487b7160e01b600052602260045260246000fd5b50919050565b60006000198214156108b457634e487b7160e01b81526011600452602481fd5b5060010190565b634e487b7160e01b600052604160045260246000fdfea26469706673582212200ff22621b13f2a2fc459d7ae7be486c696f851fa77b9e79b69cfc65911c2424464736f6c63430008000033",
  "immutableReferences": {},
  "source": "// SPDX-License-Identifier: MIT\r\npragma solidity >=0.4.22 <0.9.0;\r\n\r\ncontract ToDo {\r\n  struct Task {\r\n    uint id;\r\n    uint date;\r\n    uint dateComplete;\r\n    bytes content;\r\n    bytes author;\r\n    bool done;\r\n  }\r\n\r\n  uint lastTaskId;\r\n  uint[] taskIds;\r\n  mapping(uint => Task) public tasks;  \r\n\r\n  event TaskCreated(uint id, uint date, string content, string author, bool done);\r\n  event TaskStatusToggled(uint id, uint dateComplete, bool done);\r\n\r\n  constructor() {\r\n    lastTaskId = 0;\r\n  }\r\n\r\n  function createTask(string memory content, string memory author) public {\r\n    bytes memory tempContent = bytes(content);\r\n    bytes memory tempAuthor = bytes(author);\r\n    require(tempContent.length > 0, \"Content can't be empty\");\r\n    require(tempAuthor.length > 0, \"Author can't be empty\");\r\n    lastTaskId++;\r\n    tasks[lastTaskId] = Task(lastTaskId, block.timestamp, 0, tempContent, tempAuthor, false);\r\n    taskIds.push(lastTaskId);\r\n\r\n    emit TaskCreated(lastTaskId, block.timestamp, content, author, false);\r\n  }\r\n\r\n  function getTaskIds() public view returns(uint[] memory) {\r\n    return taskIds;\r\n  }\r\n\r\n//  /**\r\n//   * Fixture method for frontend app testing purpose only\r\n//   */\r\n//  function getTaskFixtures() public view returns(uint, uint, string memory, string memory, bool) {\r\n//    return (0, block.timestamp, \"My content\", \"ico\", false);\r\n//  }\r\n\r\n  function getTask(uint _id) public view returns(uint, uint, uint, bytes memory, bytes memory, bool) {\r\n    return (_id, tasks[_id].date, tasks[_id].dateComplete, tasks[_id].content, tasks[_id].author, tasks[_id].done);\r\n  }\r\n\r\n//  function getTasks() public view returns (address[] memory){\r\n//    address[] memory ret = new address[](lastTaskId);\r\n//    for (uint i = 0; i < lastTaskId; i++) {\r\n//        ret[i] = tasks[i];\r\n//    }\r\n//    return ret;\r\n//  }\r\n\r\n//  function toggleDone(uint _id) taskExists(_id) public {\r\n//    Task memory task = tasks[_id];\r\n//    task.done = !task.done;\r\n//    task.dateComplete = task.done ? block.timestamp : 0;\r\n//\r\n//    emit TaskStatusToggled(_id, task.done, task.dateComplete);\r\n//  }\r\n\r\n  modifier taskExists(uint _id) {\r\n    if(tasks[_id].id == 0) {\r\n      revert();\r\n    }\r\n    _;\r\n  }\r\n\r\n}",
  "sourcePath": "C:\\ProgramsOfMine\\wamp64\\www\\workspace\\BLOCKCHAIN_APPS\\eth-dapps\\02-todo-list-dapp-with-mapping\\contracts\\ToDo.sol",
  "compiler": {
    "name": "solc",
    "version": "0.8.0+commit.c7dfd78e.Emscripten.clang"
  },
  "schemaVersion": "3.4.3",
  "updatedAt": "2021-08-18T22:41:45.451Z",
  "networkType": "ethereum",
  "devdoc": {
    "kind": "dev",
    "methods": {},
    "version": 1
  },
  "userdoc": {
    "kind": "user",
    "methods": {},
    "version": 1
  }
}