{
  "contractName": "ToDo",
  "abi": [
    {
      "inputs": [],
      "stateMutability": "nonpayable",
      "type": "constructor"
    },
    {
      "anonymous": false,
      "inputs": [
        {
          "indexed": false,
          "internalType": "uint256",
          "name": "id",
          "type": "uint256"
        },
        {
          "indexed": false,
          "internalType": "uint256",
          "name": "date",
          "type": "uint256"
        },
        {
          "indexed": false,
          "internalType": "string",
          "name": "content",
          "type": "string"
        },
        {
          "indexed": false,
          "internalType": "string",
          "name": "author",
          "type": "string"
        },
        {
          "indexed": false,
          "internalType": "bool",
          "name": "done",
          "type": "bool"
        }
      ],
      "name": "TaskCreated",
      "type": "event"
    },
    {
      "anonymous": false,
      "inputs": [
        {
          "indexed": false,
          "internalType": "uint256",
          "name": "id",
          "type": "uint256"
        },
        {
          "indexed": false,
          "internalType": "uint256",
          "name": "dateComplete",
          "type": "uint256"
        },
        {
          "indexed": false,
          "internalType": "bool",
          "name": "done",
          "type": "bool"
        }
      ],
      "name": "TaskStatusToggled",
      "type": "event"
    },
    {
      "inputs": [
        {
          "internalType": "string",
          "name": "content",
          "type": "string"
        },
        {
          "internalType": "string",
          "name": "author",
          "type": "string"
        }
      ],
      "name": "createTask",
      "outputs": [],
      "stateMutability": "nonpayable",
      "type": "function"
    },
    {
      "inputs": [],
      "name": "getTasks",
      "outputs": [
        {
          "components": [
            {
              "internalType": "uint256",
              "name": "id",
              "type": "uint256"
            },
            {
              "internalType": "uint256",
              "name": "date",
              "type": "uint256"
            },
            {
              "internalType": "uint256",
              "name": "dateComplete",
              "type": "uint256"
            },
            {
              "internalType": "bytes",
              "name": "content",
              "type": "bytes"
            },
            {
              "internalType": "bytes",
              "name": "author",
              "type": "bytes"
            },
            {
              "internalType": "bool",
              "name": "done",
              "type": "bool"
            }
          ],
          "internalType": "struct ToDo.Task[]",
          "name": "",
          "type": "tuple[]"
        }
      ],
      "stateMutability": "view",
      "type": "function",
      "constant": true
    }
  ],
  "bytecode": "0x608060405234801561001057600080fd5b50600080556107bb806100246000396000f3fe608060405234801561001057600080fd5b50600436106100365760003560e01c806304a87e381461003b578063292a458514610059575b600080fd5b61004361006e565b60405161005091906105b7565b60405180910390f35b61006c61006736600461050b565b610221565b005b60606001805480602002602001604051908101604052809291908181526020016000905b8282101561021857838290600052602060002090600602016040518060c00160405290816000820154815260200160018201548152602001600282015481526020016003820180546100e39061070d565b80601f016020809104026020016040519081016040528092919081815260200182805461010f9061070d565b801561015c5780601f106101315761010080835404028352916020019161015c565b820191906000526020600020905b81548152906001019060200180831161013f57829003601f168201915b505050505081526020016004820180546101759061070d565b80601f01602080910402602001604051908101604052809291908181526020018280546101a19061070d565b80156101ee5780601f106101c3576101008083540402835291602001916101ee565b820191906000526020600020905b8154815290600101906020018083116101d157829003601f168201915b50505091835250506005919091015460ff1615156020918201529082526001929092019101610092565b50505050905090565b81518290829061024c5760405162461bcd60e51b815260040161024390610668565b60405180910390fd5b600081511161026d5760405162461bcd60e51b815260040161024390610698565b60008054908061027c83610748565b90915550506040805160c081018252600080548252426020808401918252938301828152606084018781526080850187905260a085018490526001805480820182559452845160069094027fb10e2d527612073b26eecdfd717e6a320cf44b4afac2b0732d9fcbe2b7fa0cf6810194855592517fb10e2d527612073b26eecdfd717e6a320cf44b4afac2b0732d9fcbe2b7fa0cf784015590517fb10e2d527612073b26eecdfd717e6a320cf44b4afac2b0732d9fcbe2b7fa0cf883015551805193948594610370937fb10e2d527612073b26eecdfd717e6a320cf44b4afac2b0732d9fcbe2b7fa0cf90192909101906103f1565b506080820151805161038c9160048401916020909101906103f1565b5060a091909101516005909101805460ff1916911515919091179055600080546040517fb322bdd3250d405f7845d27fa1f0753f8f7e18e40886bc254b89005c3e9c0324926103e2929142918a918a91906106c7565b60405180910390a15050505050565b8280546103fd9061070d565b90600052602060002090601f01602090048101928261041f5760008555610465565b82601f1061043857805160ff1916838001178555610465565b82800160010185558215610465579182015b8281111561046557825182559160200191906001019061044a565b50610471929150610475565b5090565b5b808211156104715760008155600101610476565b600082601f83011261049a578081fd5b813567ffffffffffffffff808211156104b5576104b561076f565b604051601f8301601f1916810160200182811182821017156104d9576104d961076f565b6040528281528483016020018610156104f0578384fd5b82602086016020830137918201602001929092529392505050565b6000806040838503121561051d578182fd5b823567ffffffffffffffff80821115610534578384fd5b6105408683870161048a565b93506020850135915080821115610555578283fd5b506105628582860161048a565b9150509250929050565b60008151808452815b8181101561059157602081850181015186830182015201610575565b818111156105a25782602083870101525b50601f01601f19169290920160200192915050565b60208082528251828201819052600091906040908185019080840286018301878501865b8381101561065a57603f19898403018552815160c08151855288820151898601528782015188860152606080830151828288015261061b8388018261056c565b9250505060808083015186830382880152610636838261056c565b60a094850151151597909401969096525050948701949250908601906001016105db565b509098975050505050505050565b602080825260169082015275436f6e74656e742063616e277420626520656d70747960501b604082015260600190565b602080825260159082015274417574686f722063616e277420626520656d70747960581b604082015260600190565b600086825285602083015260a060408301526106e660a083018661056c565b82810360608401526106f8818661056c565b91505082151560808301529695505050505050565b60028104600182168061072157607f821691505b6020821081141561074257634e487b7160e01b600052602260045260246000fd5b50919050565b600060001982141561076857634e487b7160e01b81526011600452602481fd5b5060010190565b634e487b7160e01b600052604160045260246000fdfea264697066735822122041aec05cd5b980af135514de5e721203ba08dd95ec63eaeffc2492e615b7b34764736f6c63430008000033",
  "immutableReferences": {},
  "source": "// SPDX-License-Identifier: MIT\r\npragma solidity >=0.4.22 <0.9.0;\r\n\r\ncontract ToDo {\r\n  struct Task {\r\n    uint id;\r\n    uint date;\r\n    uint dateComplete;\r\n    bytes content;\r\n    bytes author;\r\n    bool done;\r\n  }\r\n\r\n  uint lastTaskId;\r\n  Task[] tasks;\r\n\r\n  event TaskCreated(uint id, uint date, string content, string author, bool done);\r\n  event TaskStatusToggled(uint id, uint dateComplete, bool done);\r\n\r\n  constructor() {\r\n    lastTaskId = 0;\r\n  }\r\n\r\n  function createTask(string memory content, string memory author) public {\r\n    bytes memory tempContent = bytes(content);\r\n    bytes memory tempAuthor = bytes(author);\r\n\r\n    require(tempContent.length > 0, \"Content can't be empty\");\r\n    require(tempAuthor.length > 0, \"Author can't be empty\");\r\n\r\n    lastTaskId++;\r\n    Task memory task = Task(lastTaskId, block.timestamp, 0, tempContent, tempAuthor, false);\r\n    tasks.push(task);\r\n\r\n    emit TaskCreated(lastTaskId, block.timestamp, content, author, false);\r\n  }\r\n\r\n  function getTasks() public view returns(Task[] memory) {\r\n    return tasks;\r\n  }\r\n\r\n//  function toggleDone(uint _id) taskExists(_id) public {\r\n//    Task memory task = tasks[_id];\r\n//    task.done = !task.done;\r\n//    task.dateComplete = task.done ? block.timestamp : 0;\r\n//\r\n//    emit TaskStatusToggled(_id, task.done, task.dateComplete);\r\n//  }\r\n\r\n  modifier taskExists(uint _id) {\r\n    if(tasks[_id].id == 0) {\r\n      revert();\r\n    }\r\n    _;\r\n  }\r\n\r\n}",
  "sourcePath": "C:/ProgramsOfMine/wamp64/www/workspace/BLOCKCHAIN_APPS/eth-dapps/02-todo-list-dapp/contracts/ToDo.sol",
  "compiler": {
    "name": "solc",
    "version": "0.8.0+commit.c7dfd78e.Emscripten.clang"
  },
  "schemaVersion": "3.4.1",
  "updatedAt": "2021-08-18T14:12:23.449Z",
  "networkType": "ethereum",
  "devdoc": {
    "kind": "dev",
    "methods": {},
    "version": 1
  },
  "userdoc": {
    "kind": "user",
    "methods": {},
    "version": 1
  }
}