{
  "contractName": "ComplexStorage",
  "abi": [
    {
      "inputs": [],
      "stateMutability": "nonpayable",
      "type": "constructor"
    },
    {
      "inputs": [],
      "name": "constuint",
      "outputs": [
        {
          "internalType": "uint256",
          "name": "",
          "type": "uint256"
        }
      ],
      "stateMutability": "view",
      "type": "function",
      "constant": true
    },
    {
      "inputs": [
        {
          "internalType": "uint256",
          "name": "",
          "type": "uint256"
        }
      ],
      "name": "deviceDataArray",
      "outputs": [
        {
          "internalType": "string",
          "name": "deviceBrand",
          "type": "string"
        },
        {
          "internalType": "string",
          "name": "deviceYear",
          "type": "string"
        },
        {
          "internalType": "string",
          "name": "batteryWearLevel",
          "type": "string"
        }
      ],
      "stateMutability": "view",
      "type": "function",
      "constant": true
    },
    {
      "inputs": [],
      "name": "investmentsDeadlineTimeStamp",
      "outputs": [
        {
          "internalType": "uint32",
          "name": "",
          "type": "uint32"
        }
      ],
      "stateMutability": "view",
      "type": "function",
      "constant": true
    },
    {
      "inputs": [],
      "name": "investmentsLimit",
      "outputs": [
        {
          "internalType": "uint128",
          "name": "",
          "type": "uint128"
        }
      ],
      "stateMutability": "view",
      "type": "function",
      "constant": true
    },
    {
      "inputs": [],
      "name": "singleDD",
      "outputs": [
        {
          "internalType": "string",
          "name": "deviceBrand",
          "type": "string"
        },
        {
          "internalType": "string",
          "name": "deviceYear",
          "type": "string"
        },
        {
          "internalType": "string",
          "name": "batteryWearLevel",
          "type": "string"
        }
      ],
      "stateMutability": "view",
      "type": "function",
      "constant": true
    },
    {
      "inputs": [],
      "name": "storeduint1",
      "outputs": [
        {
          "internalType": "uint256",
          "name": "",
          "type": "uint256"
        }
      ],
      "stateMutability": "view",
      "type": "function",
      "constant": true
    },
    {
      "inputs": [],
      "name": "string1",
      "outputs": [
        {
          "internalType": "bytes16",
          "name": "",
          "type": "bytes16"
        }
      ],
      "stateMutability": "view",
      "type": "function",
      "constant": true
    },
    {
      "inputs": [],
      "name": "string2",
      "outputs": [
        {
          "internalType": "bytes32",
          "name": "",
          "type": "bytes32"
        }
      ],
      "stateMutability": "view",
      "type": "function",
      "constant": true
    },
    {
      "inputs": [],
      "name": "string3",
      "outputs": [
        {
          "internalType": "string",
          "name": "",
          "type": "string"
        }
      ],
      "stateMutability": "view",
      "type": "function",
      "constant": true
    },
    {
      "inputs": [
        {
          "internalType": "uint256",
          "name": "",
          "type": "uint256"
        }
      ],
      "name": "uintarray",
      "outputs": [
        {
          "internalType": "uint256",
          "name": "",
          "type": "uint256"
        }
      ],
      "stateMutability": "view",
      "type": "function",
      "constant": true
    }
  ],
  "bytecode": "0x6080604052600f60005561429f600160006101000a8154816fffffffffffffffffffffffffffffffff02191690836fffffffffffffffffffffffffffffffff16021790555042600160106101000a81548163ffffffff021916908363ffffffff1602179055507f7465737431000000000000000000000000000000000000000000000000000000600260006101000a8154816fffffffffffffffffffffffffffffffff021916908360801c02179055507f74657374313233360000000000000000000000000000000000000000000000006003556040518060400160405280601581526020017f6c65747320737472696e6720736f6d657468696e6700000000000000000000008152506004908051906020019062000120929190620007c7565b503480156200012e57600080fd5b50600073bccc714d56bc0da0fd33d96d2a87b680dd6d0df69050600073aee905fdd3ed851e48d22059575b9f4245a82b0490506058600560008473ffffffffffffffffffffffffffffffffffffffff1673ffffffffffffffffffffffffffffffffffffffff168152602001908152602001600020819055506063600560008373ffffffffffffffffffffffffffffffffffffffff1673ffffffffffffffffffffffffffffffffffffffff1681526020019081526020016000208190555060405180606001604052806040518060400160405280600b81526020017f6465766963654272616e6400000000000000000000000000000000000000000081525081526020016040518060400160405280600a81526020017f646576696365596561720000000000000000000000000000000000000000000081525081526020016040518060400160405280600981526020017f776561724c6576656c0000000000000000000000000000000000000000000000815250815250600660008473ffffffffffffffffffffffffffffffffffffffff1673ffffffffffffffffffffffffffffffffffffffff168152602001908152602001600020600082015181600001908051906020019062000302929190620007c7565b50602082015181600101908051906020019062000321929190620007c7565b50604082015181600201908051906020019062000340929190620007c7565b5090505060405180606001604052806040518060400160405280600c81526020017f6465766963654272616e6432000000000000000000000000000000000000000081525081526020016040518060400160405280600b81526020017f646576696365596561723200000000000000000000000000000000000000000081525081526020016040518060400160405280600a81526020017f776561724c6576656c3200000000000000000000000000000000000000000000815250815250600660008373ffffffffffffffffffffffffffffffffffffffff1673ffffffffffffffffffffffffffffffffffffffff16815260200190815260200160002060008201518160000190805190602001906200045b929190620007c7565b5060208201518160010190805190602001906200047a929190620007c7565b50604082015181600201908051906020019062000499929190620007c7565b5090505060405180606001604052806040518060400160405280600c81526020017f6465766963654272616e6433000000000000000000000000000000000000000081525081526020016040518060400160405280600b81526020017f646576696365596561723300000000000000000000000000000000000000000081525081526020016040518060400160405280600a81526020017f776561724c6576656c33000000000000000000000000000000000000000000008152508152506009600082015181600001908051906020019062000577929190620007c7565b50602082015181600101908051906020019062000596929190620007c7565b506040820151816002019080519060200190620005b5929190620007c7565b509050506007611f409080600181540180825580915050600190039060005260206000200160009091909190915055600761232890806001815401808255809150506001900390600052602060002001600090919091909150556008600660008473ffffffffffffffffffffffffffffffffffffffff1673ffffffffffffffffffffffffffffffffffffffff168152602001908152602001600020908060018154018082558091505060019003906000526020600020906003020160009091909190915060008201816000019080546200068f906200090f565b6200069c92919062000858565b506001820181600101908054620006b3906200090f565b620006c092919062000858565b506002820181600201908054620006d7906200090f565b620006e492919062000858565b5050506008600660008373ffffffffffffffffffffffffffffffffffffffff1673ffffffffffffffffffffffffffffffffffffffff1681526020019081526020016000209080600181540180825580915050600190039060005260206000209060030201600090919091909150600082018160000190805462000767906200090f565b6200077492919062000858565b5060018201816001019080546200078b906200090f565b6200079892919062000858565b506002820181600201908054620007af906200090f565b620007bc92919062000858565b505050505062000974565b828054620007d5906200090f565b90600052602060002090601f016020900481019282620007f9576000855562000845565b82601f106200081457805160ff191683800117855562000845565b8280016001018555821562000845579182015b828111156200084457825182559160200191906001019062000827565b5b509050620008549190620008f0565b5090565b82805462000866906200090f565b90600052602060002090601f0160209004810192826200088a5760008555620008dd565b82601f106200089d5780548555620008dd565b82800160010185558215620008dd57600052602060002091601f016020900482015b82811115620008dc578254825591600101919060010190620008bf565b5b509050620008ec9190620008f0565b5090565b5b808211156200090b576000816000905550600101620008f1565b5090565b600060028204905060018216806200092857607f821691505b602082108114156200093f576200093e62000945565b5b50919050565b7f4e487b7100000000000000000000000000000000000000000000000000000000600052602260045260246000fd5b6109b880620009846000396000f3fe608060405234801561001057600080fd5b506004361061009e5760003560e01c80639275586011610066578063927558601461016157806397ba784f1461017f578063a7b2cfca1461019d578063df4fddf5146101bb578063eec65f29146101d95761009e565b80630ca0aa79146100a357806311f9c74d146100c157806328a20b5e146100df5780636c0c1bcf146100ff57806384eeda561461012f575b600080fd5b6100ab6101f7565b6040516100b89190610764565b60405180910390f35b6100c96101fd565b6040516100d69190610808565b60405180910390f35b6100e7610203565b6040516100f6939291906107a1565b60405180910390f35b6101196004803603810190610114919061069c565b6103b3565b6040516101269190610808565b60405180910390f35b6101496004803603810190610144919061069c565b6103d7565b604051610158939291906107a1565b60405180910390f35b6101696105a9565b604051610176919061077f565b60405180910390f35b610187610637565b6040516101949190610808565b60405180910390f35b6101a561063c565b6040516101b29190610749565b60405180910390f35b6101c361064f565b6040516101d09190610823565b60405180910390f35b6101e1610665565b6040516101ee91906107ed565b60405180910390f35b60035481565b60005481565b6009806000018054610214906108f9565b80601f0160208091040260200160405190810160405280929190818152602001828054610240906108f9565b801561028d5780601f106102625761010080835404028352916020019161028d565b820191906000526020600020905b81548152906001019060200180831161027057829003601f168201915b5050505050908060010180546102a2906108f9565b80601f01602080910402602001604051908101604052809291908181526020018280546102ce906108f9565b801561031b5780601f106102f05761010080835404028352916020019161031b565b820191906000526020600020905b8154815290600101906020018083116102fe57829003601f168201915b505050505090806002018054610330906108f9565b80601f016020809104026020016040519081016040528092919081815260200182805461035c906108f9565b80156103a95780601f1061037e576101008083540402835291602001916103a9565b820191906000526020600020905b81548152906001019060200180831161038c57829003601f168201915b5050505050905083565b600781815481106103c357600080fd5b906000526020600020016000915090505481565b600881815481106103e757600080fd5b906000526020600020906003020160009150905080600001805461040a906108f9565b80601f0160208091040260200160405190810160405280929190818152602001828054610436906108f9565b80156104835780601f1061045857610100808354040283529160200191610483565b820191906000526020600020905b81548152906001019060200180831161046657829003601f168201915b505050505090806001018054610498906108f9565b80601f01602080910402602001604051908101604052809291908181526020018280546104c4906108f9565b80156105115780601f106104e657610100808354040283529160200191610511565b820191906000526020600020905b8154815290600101906020018083116104f457829003601f168201915b505050505090806002018054610526906108f9565b80601f0160208091040260200160405190810160405280929190818152602001828054610552906108f9565b801561059f5780601f106105745761010080835404028352916020019161059f565b820191906000526020600020905b81548152906001019060200180831161058257829003601f168201915b5050505050905083565b600480546105b6906108f9565b80601f01602080910402602001604051908101604052809291908181526020018280546105e2906108f9565b801561062f5780601f106106045761010080835404028352916020019161062f565b820191906000526020600020905b81548152906001019060200180831161061257829003601f168201915b505050505081565b601081565b600260009054906101000a900460801b81565b600160109054906101000a900463ffffffff1681565b600160009054906101000a90046fffffffffffffffffffffffffffffffff1681565b6000813590506106968161096b565b92915050565b6000602082840312156106ae57600080fd5b60006106bc84828501610687565b91505092915050565b6106ce8161085a565b82525050565b6106dd81610886565b82525050565b60006106ee8261083e565b6106f88185610849565b93506107088185602086016108c6565b6107118161095a565b840191505092915050565b61072581610890565b82525050565b610734816108ac565b82525050565b610743816108b6565b82525050565b600060208201905061075e60008301846106c5565b92915050565b600060208201905061077960008301846106d4565b92915050565b6000602082019050818103600083015261079981846106e3565b905092915050565b600060608201905081810360008301526107bb81866106e3565b905081810360208301526107cf81856106e3565b905081810360408301526107e381846106e3565b9050949350505050565b6000602082019050610802600083018461071c565b92915050565b600060208201905061081d600083018461072b565b92915050565b6000602082019050610838600083018461073a565b92915050565b600081519050919050565b600082825260208201905092915050565b60007fffffffffffffffffffffffffffffffff0000000000000000000000000000000082169050919050565b6000819050919050565b60006fffffffffffffffffffffffffffffffff82169050919050565b6000819050919050565b600063ffffffff82169050919050565b60005b838110156108e45780820151818401526020810190506108c9565b838111156108f3576000848401525b50505050565b6000600282049050600182168061091157607f821691505b602082108114156109255761092461092b565b5b50919050565b7f4e487b7100000000000000000000000000000000000000000000000000000000600052602260045260246000fd5b6000601f19601f8301169050919050565b610974816108ac565b811461097f57600080fd5b5056fea264697066735822122094140d410248cd010c1e58f6a7a5f08f7a650e03ec2edc316deac8b551f46ab064736f6c63430008000033",
  "immutableReferences": {},
  "source": "// SPDX-License-Identifier: MIT\r\npragma solidity >=0.4.22 <0.9.0;\r\n\r\ncontract ComplexStorage {\r\n\r\n    uint public storeduint1 = 15;\r\n    uint public constant constuint = 16;\r\n    uint128 public investmentsLimit = 17055;\r\n    uint32 public investmentsDeadlineTimeStamp = uint32(block.timestamp);\r\n\r\n    bytes16 public string1 = \"test1\";\r\n    bytes32 public string2 = \"test1236\";\r\n    string public string3 = \"lets string something\";\r\n\r\n    mapping (address => uint) uints1;\r\n    mapping (address => DeviceData) structs1;\r\n\r\n    uint[] public uintarray;\r\n    DeviceData[] public deviceDataArray;\r\n    DeviceData public singleDD;\r\n\r\n    struct DeviceData {\r\n        string deviceBrand;\r\n        string deviceYear;\r\n        string batteryWearLevel;\r\n    }\r\n\r\n    constructor() {\r\n        address address1 = 0xbCcc714d56bc0da0fd33d96d2a87b680dD6D0DF6;\r\n        address address2 = 0xaee905FdD3ED851e48d22059575b9F4245A82B04;\r\n\r\n        uints1[address1] = 88;\r\n        uints1[address2] = 99;\r\n\r\n        structs1[address1] = DeviceData(\"deviceBrand\", \"deviceYear\", \"wearLevel\");\r\n        structs1[address2] = DeviceData(\"deviceBrand2\", \"deviceYear2\", \"wearLevel2\");\r\n        singleDD = DeviceData(\"deviceBrand3\", \"deviceYear3\", \"wearLevel3\");\r\n\r\n        uintarray.push(8000);\r\n        uintarray.push(9000);\r\n\r\n        deviceDataArray.push(structs1[address1]);\r\n        deviceDataArray.push(structs1[address2]);\r\n    }\r\n}\r\n",
  "sourcePath": "C:/ProgramsOfMine/wamp64/www/workspace/BLOCKCHAIN_APPS/eth-dapp-with-truffle-drizzle-react/01-simple-storage-complexe-storage-dapp/contracts/ComplexStorage.sol",
  "compiler": {
    "name": "solc",
    "version": "0.8.0+commit.c7dfd78e.Emscripten.clang"
  },
  "schemaVersion": "3.4.1",
  "updatedAt": "2021-08-16T09:38:00.196Z",
  "networkType": "ethereum",
  "devdoc": {
    "kind": "dev",
    "methods": {},
    "version": 1
  },
  "userdoc": {
    "kind": "user",
    "methods": {},
    "version": 1
  }
}