{
  "contractName": "SimpleStorage",
  "abi": [
    {
      "anonymous": false,
      "inputs": [
        {
          "indexed": false,
          "internalType": "string",
          "name": "_message",
          "type": "string"
        }
      ],
      "name": "SimpleStorageSet",
      "type": "event"
    },
    {
      "inputs": [],
      "name": "data",
      "outputs": [
        {
          "internalType": "string",
          "name": "",
          "type": "string"
        }
      ],
      "stateMutability": "view",
      "type": "function",
      "constant": true
    },
    {
      "inputs": [],
      "name": "getData",
      "outputs": [
        {
          "internalType": "string",
          "name": "",
          "type": "string"
        }
      ],
      "stateMutability": "view",
      "type": "function",
      "constant": true
    },
    {
      "inputs": [
        {
          "internalType": "string",
          "name": "_data",
          "type": "string"
        }
      ],
      "name": "setData",
      "outputs": [],
      "stateMutability": "nonpayable",
      "type": "function"
    }
  ],
  "bytecode": "0x60806040526040518060600160405280602981526020016106456029913960009080519060200190610032929190610045565b5034801561003f57600080fd5b50610149565b828054610051906100e8565b90600052602060002090601f01602090048101928261007357600085556100ba565b82601f1061008c57805160ff19168380011785556100ba565b828001600101855582156100ba579182015b828111156100b957825182559160200191906001019061009e565b5b5090506100c791906100cb565b5090565b5b808211156100e45760008160009055506001016100cc565b5090565b6000600282049050600182168061010057607f821691505b602082108114156101145761011361011a565b5b50919050565b7f4e487b7100000000000000000000000000000000000000000000000000000000600052602260045260246000fd5b6104ed806101586000396000f3fe608060405234801561001057600080fd5b50600436106100415760003560e01c80633bc5de301461004657806347064d6a1461006457806373d4a13a14610080575b600080fd5b61004e61009e565b60405161005b91906103b4565b60405180910390f35b61007e600480360381019061007991906102f6565b610130565b005b61008861017b565b60405161009591906103b4565b60405180910390f35b6060600080546100ad90610445565b80601f01602080910402602001604051908101604052809291908181526020018280546100d990610445565b80156101265780601f106100fb57610100808354040283529160200191610126565b820191906000526020600020905b81548152906001019060200180831161010957829003601f168201915b5050505050905090565b818160009190610141929190610209565b507f041f60ccad9dd993b426243b608aa809aad34612dccebc7f9853afd24e72916a60405161016f906103d6565b60405180910390a15050565b6000805461018890610445565b80601f01602080910402602001604051908101604052809291908181526020018280546101b490610445565b80156102015780601f106101d657610100808354040283529160200191610201565b820191906000526020600020905b8154815290600101906020018083116101e457829003601f168201915b505050505081565b82805461021590610445565b90600052602060002090601f016020900481019282610237576000855561027e565b82601f1061025057803560ff191683800117855561027e565b8280016001018555821561027e579182015b8281111561027d578235825591602001919060010190610262565b5b50905061028b919061028f565b5090565b5b808211156102a8576000816000905550600101610290565b5090565b60008083601f8401126102be57600080fd5b8235905067ffffffffffffffff8111156102d757600080fd5b6020830191508360018202830111156102ef57600080fd5b9250929050565b6000806020838503121561030957600080fd5b600083013567ffffffffffffffff81111561032357600080fd5b61032f858286016102ac565b92509250509250929050565b6000610346826103f6565b6103508185610401565b9350610360818560208601610412565b610369816104a6565b840191505092915050565b6000610381601983610401565b91507f446174612073746f726564207375636365737366756c6c7921000000000000006000830152602082019050919050565b600060208201905081810360008301526103ce818461033b565b905092915050565b600060208201905081810360008301526103ef81610374565b9050919050565b600081519050919050565b600082825260208201905092915050565b60005b83811015610430578082015181840152602081019050610415565b8381111561043f576000848401525b50505050565b6000600282049050600182168061045d57607f821691505b6020821081141561047157610470610477565b5b50919050565b7f4e487b7100000000000000000000000000000000000000000000000000000000600052602260045260246000fd5b6000601f19601f830116905091905056fea26469706673582212206cc57f248d2bb230947f2e1ef45c8671b7d88fb2648f9907ba4eb26bdca7f3b264736f6c634300080000334d792064656661756c742073746f7265642076616c756520696e2074686520626c6f636b636861696e",
  "immutableReferences": {},
  "source": "// SPDX-License-Identifier: MIT\r\npragma solidity >=0.4.22 <0.9.0;\r\n\r\ncontract SimpleStorage {\r\n\r\n  string public data = \"My default stored value in the blockchain\";\r\n\r\n  event SimpleStorageSet(string _message);\r\n\r\n  // Not really necessary because \"data\" is \"public\" so solidity will create a \"geter\" automatically\r\n  function getData() view external returns(string memory) {\r\n    return data;\r\n  }\r\n\r\n  function setData(string calldata _data) external {\r\n    data = _data;\r\n\r\n    emit SimpleStorageSet(\"Data stored successfully!\");\r\n  }\r\n\r\n}",
  "sourcePath": "C:/ProgramsOfMine/wamp64/www/workspace/BLOCKCHAIN_APPS/eth-dapp-with-truffle-drizzle-react/01-simple-storage-complexe-storage-dapp/contracts/SimpleStorage.sol",
  "compiler": {
    "name": "solc",
    "version": "0.8.0+commit.c7dfd78e.Emscripten.clang"
  },
  "schemaVersion": "3.4.1",
  "updatedAt": "2021-08-16T09:38:00.191Z",
  "networkType": "ethereum",
  "devdoc": {
    "kind": "dev",
    "methods": {},
    "version": 1
  },
  "userdoc": {
    "kind": "user",
    "methods": {},
    "version": 1
  }
}