{
  "contractName": "WheezyToken",
  "abi": [
    {
      "inputs": [],
      "stateMutability": "nonpayable",
      "type": "constructor"
    },
    {
      "anonymous": false,
      "inputs": [
        {
          "indexed": true,
          "internalType": "address",
          "name": "owner",
          "type": "address"
        },
        {
          "indexed": true,
          "internalType": "address",
          "name": "spender",
          "type": "address"
        },
        {
          "indexed": false,
          "internalType": "uint256",
          "name": "value",
          "type": "uint256"
        }
      ],
      "name": "Approval",
      "type": "event"
    },
    {
      "anonymous": false,
      "inputs": [
        {
          "indexed": true,
          "internalType": "address",
          "name": "previousOwner",
          "type": "address"
        },
        {
          "indexed": true,
          "internalType": "address",
          "name": "newOwner",
          "type": "address"
        }
      ],
      "name": "OwnershipTransferred",
      "type": "event"
    },
    {
      "anonymous": false,
      "inputs": [
        {
          "indexed": true,
          "internalType": "address",
          "name": "from",
          "type": "address"
        },
        {
          "indexed": true,
          "internalType": "address",
          "name": "to",
          "type": "address"
        },
        {
          "indexed": false,
          "internalType": "uint256",
          "name": "value",
          "type": "uint256"
        }
      ],
      "name": "Transfer",
      "type": "event"
    },
    {
      "inputs": [],
      "name": "TOKEN_DECIMALS",
      "outputs": [
        {
          "internalType": "uint8",
          "name": "",
          "type": "uint8"
        }
      ],
      "stateMutability": "view",
      "type": "function"
    },
    {
      "inputs": [],
      "name": "TOKEN_INITIAL_SUPPLY",
      "outputs": [
        {
          "internalType": "uint256",
          "name": "",
          "type": "uint256"
        }
      ],
      "stateMutability": "view",
      "type": "function"
    },
    {
      "inputs": [],
      "name": "TOKEN_NAME",
      "outputs": [
        {
          "internalType": "string",
          "name": "",
          "type": "string"
        }
      ],
      "stateMutability": "view",
      "type": "function"
    },
    {
      "inputs": [],
      "name": "TOKEN_SYMBOL",
      "outputs": [
        {
          "internalType": "string",
          "name": "",
          "type": "string"
        }
      ],
      "stateMutability": "view",
      "type": "function"
    },
    {
      "inputs": [
        {
          "internalType": "address",
          "name": "owner",
          "type": "address"
        },
        {
          "internalType": "address",
          "name": "spender",
          "type": "address"
        }
      ],
      "name": "allowance",
      "outputs": [
        {
          "internalType": "uint256",
          "name": "",
          "type": "uint256"
        }
      ],
      "stateMutability": "view",
      "type": "function"
    },
    {
      "inputs": [
        {
          "internalType": "address",
          "name": "spender",
          "type": "address"
        },
        {
          "internalType": "uint256",
          "name": "amount",
          "type": "uint256"
        }
      ],
      "name": "approve",
      "outputs": [
        {
          "internalType": "bool",
          "name": "",
          "type": "bool"
        }
      ],
      "stateMutability": "nonpayable",
      "type": "function"
    },
    {
      "inputs": [
        {
          "internalType": "address",
          "name": "account",
          "type": "address"
        }
      ],
      "name": "balanceOf",
      "outputs": [
        {
          "internalType": "uint256",
          "name": "",
          "type": "uint256"
        }
      ],
      "stateMutability": "view",
      "type": "function"
    },
    {
      "inputs": [],
      "name": "decimals",
      "outputs": [
        {
          "internalType": "uint8",
          "name": "",
          "type": "uint8"
        }
      ],
      "stateMutability": "view",
      "type": "function"
    },
    {
      "inputs": [
        {
          "internalType": "address",
          "name": "spender",
          "type": "address"
        },
        {
          "internalType": "uint256",
          "name": "subtractedValue",
          "type": "uint256"
        }
      ],
      "name": "decreaseAllowance",
      "outputs": [
        {
          "internalType": "bool",
          "name": "",
          "type": "bool"
        }
      ],
      "stateMutability": "nonpayable",
      "type": "function"
    },
    {
      "inputs": [
        {
          "internalType": "address",
          "name": "spender",
          "type": "address"
        },
        {
          "internalType": "uint256",
          "name": "addedValue",
          "type": "uint256"
        }
      ],
      "name": "increaseAllowance",
      "outputs": [
        {
          "internalType": "bool",
          "name": "",
          "type": "bool"
        }
      ],
      "stateMutability": "nonpayable",
      "type": "function"
    },
    {
      "inputs": [],
      "name": "name",
      "outputs": [
        {
          "internalType": "string",
          "name": "",
          "type": "string"
        }
      ],
      "stateMutability": "view",
      "type": "function"
    },
    {
      "inputs": [],
      "name": "owner",
      "outputs": [
        {
          "internalType": "address",
          "name": "",
          "type": "address"
        }
      ],
      "stateMutability": "view",
      "type": "function"
    },
    {
      "inputs": [],
      "name": "renounceOwnership",
      "outputs": [],
      "stateMutability": "nonpayable",
      "type": "function"
    },
    {
      "inputs": [],
      "name": "symbol",
      "outputs": [
        {
          "internalType": "string",
          "name": "",
          "type": "string"
        }
      ],
      "stateMutability": "view",
      "type": "function"
    },
    {
      "inputs": [],
      "name": "totalSupply",
      "outputs": [
        {
          "internalType": "uint256",
          "name": "",
          "type": "uint256"
        }
      ],
      "stateMutability": "view",
      "type": "function"
    },
    {
      "inputs": [
        {
          "internalType": "address",
          "name": "recipient",
          "type": "address"
        },
        {
          "internalType": "uint256",
          "name": "amount",
          "type": "uint256"
        }
      ],
      "name": "transfer",
      "outputs": [
        {
          "internalType": "bool",
          "name": "",
          "type": "bool"
        }
      ],
      "stateMutability": "nonpayable",
      "type": "function"
    },
    {
      "inputs": [
        {
          "internalType": "address",
          "name": "sender",
          "type": "address"
        },
        {
          "internalType": "address",
          "name": "recipient",
          "type": "address"
        },
        {
          "internalType": "uint256",
          "name": "amount",
          "type": "uint256"
        }
      ],
      "name": "transferFrom",
      "outputs": [
        {
          "internalType": "bool",
          "name": "",
          "type": "bool"
        }
      ],
      "stateMutability": "nonpayable",
      "type": "function"
    },
    {
      "inputs": [
        {
          "internalType": "address",
          "name": "newOwner",
          "type": "address"
        }
      ],
      "name": "transferOwnership",
      "outputs": [],
      "stateMutability": "nonpayable",
      "type": "function"
    }
  ],
  "bytecode": "0x60806040523480156200001157600080fd5b50604080518082018252600b81526a2bb432b2bd3caa37b5b2b760a91b602080830191825283518085019094526006845265574845455a5960d01b908401528151919291620000639160039162000201565b5080516200007990600490602084019062000201565b5050506200009662000090620000c460201b60201c565b620000c8565b620000be33620000a96012600a6200034f565b620000b890620f424062000444565b6200011a565b620004b9565b3390565b600580546001600160a01b038381166001600160a01b0319831681179093556040519116919082907f8be0079c531659141344cd1fd0a4f28419497f9722a3daafe3b4186f6b6457e090600090a35050565b6001600160a01b0382166200014c5760405162461bcd60e51b81526004016200014390620002a7565b60405180910390fd5b6200015a60008383620001fc565b80600260008282546200016e9190620002e7565b90915550506001600160a01b038216600090815260208190526040812080548392906200019d908490620002e7565b90915550506040516001600160a01b038316906000907fddf252ad1be2c89b69c2b068fc378daa952ba7f163c4a11628f55a4df523b3ef90620001e2908590620002de565b60405180910390a3620001f860008383620001fc565b5050565b505050565b8280546200020f9062000466565b90600052602060002090601f0160209004810192826200023357600085556200027e565b82601f106200024e57805160ff19168380011785556200027e565b828001600101855582156200027e579182015b828111156200027e57825182559160200191906001019062000261565b506200028c92915062000290565b5090565b5b808211156200028c576000815560010162000291565b6020808252601f908201527f45524332303a206d696e7420746f20746865207a65726f206164647265737300604082015260600190565b90815260200190565b60008219821115620002fd57620002fd620004a3565b500190565b80825b600180861162000316575062000346565b8187048211156200032b576200032b620004a3565b808616156200033957918102915b9490941c93800262000305565b94509492505050565b600062000360600019848462000367565b9392505050565b600082620003785750600162000360565b81620003875750600062000360565b8160018114620003a05760028114620003ab57620003df565b600191505062000360565b60ff841115620003bf57620003bf620004a3565b6001841b915084821115620003d857620003d8620004a3565b5062000360565b5060208310610133831016604e8410600b841016171562000417575081810a83811115620004115762000411620004a3565b62000360565b62000426848484600162000302565b8086048211156200043b576200043b620004a3565b02949350505050565b6000816000190483118215151615620004615762000461620004a3565b500290565b6002810460018216806200047b57607f821691505b602082108114156200049d57634e487b7160e01b600052602260045260246000fd5b50919050565b634e487b7160e01b600052601160045260246000fd5b610dca80620004c96000396000f3fe608060405234801561001057600080fd5b50600436106101165760003560e01c80635b7f415c116100a257806395d89b411161007157806395d89b41146101fb578063a457c2d714610203578063a9059cbb14610216578063dd62ed3e14610229578063f2fde38b1461023c57610116565b80635b7f415c146101c157806370a08231146101c9578063715018a6146101dc5780638da5cb5b146101e657610116565b806323b872dd116100e957806323b872dd146101765780632a90531814610189578063313ce5671461019157806336c20dcf146101a657806339509351146101ae57610116565b806306fdde031461011b578063095ea7b31461013957806318160ddd14610159578063188214001461016e575b600080fd5b61012361024f565b6040516101309190610932565b60405180910390f35b61014c6101473660046108ea565b6102e1565b6040516101309190610927565b6101616102fe565b6040516101309190610be1565b610123610304565b61014c6101843660046108af565b61032b565b6101236103c6565b6101996103e8565b6040516101309190610bea565b6101616103ed565b61014c6101bc3660046108ea565b610409565b61019961045d565b6101616101d7366004610863565b610462565b6101e4610481565b005b6101ee6104cc565b6040516101309190610913565b6101236104db565b61014c6102113660046108ea565b6104ea565b61014c6102243660046108ea565b610563565b61016161023736600461087d565b610577565b6101e461024a366004610863565b6105a2565b60606003805461025e90610d43565b80601f016020809104026020016040519081016040528092919081815260200182805461028a90610d43565b80156102d75780601f106102ac576101008083540402835291602001916102d7565b820191906000526020600020905b8154815290600101906020018083116102ba57829003601f168201915b5050505050905090565b60006102f56102ee610613565b8484610617565b50600192915050565b60025490565b6040518060400160405280600b81526020016a2bb432b2bd3caa37b5b2b760a91b81525081565b60006103388484846106cb565b6001600160a01b038416600090815260016020526040812081610359610613565b6001600160a01b03166001600160a01b03168152602001908152602001600020549050828110156103a55760405162461bcd60e51b815260040161039c90610a96565b60405180910390fd5b6103b9856103b1610613565b858403610617565b60019150505b9392505050565b60405180604001604052806006815260200165574845455a5960d01b81525081565b601290565b6103f96012600a610c56565b61040690620f4240610d24565b81565b60006102f5610416610613565b848460016000610424610613565b6001600160a01b03908116825260208083019390935260409182016000908120918b16815292529020546104589190610bf8565b610617565b601281565b6001600160a01b0381166000908152602081905260409020545b919050565b610489610613565b6001600160a01b031661049a6104cc565b6001600160a01b0316146104c05760405162461bcd60e51b815260040161039c90610ade565b6104ca60006107f5565b565b6005546001600160a01b031690565b60606004805461025e90610d43565b600080600160006104f9610613565b6001600160a01b03908116825260208083019390935260409182016000908120918816815292529020549050828110156105455760405162461bcd60e51b815260040161039c90610b9c565b610559610550610613565b85858403610617565b5060019392505050565b60006102f5610570610613565b84846106cb565b6001600160a01b03918216600090815260016020908152604080832093909416825291909152205490565b6105aa610613565b6001600160a01b03166105bb6104cc565b6001600160a01b0316146105e15760405162461bcd60e51b815260040161039c90610ade565b6001600160a01b0381166106075760405162461bcd60e51b815260040161039c906109c8565b610610816107f5565b50565b3390565b6001600160a01b03831661063d5760405162461bcd60e51b815260040161039c90610b58565b6001600160a01b0382166106635760405162461bcd60e51b815260040161039c90610a0e565b6001600160a01b0380841660008181526001602090815260408083209487168084529490915290819020849055517f8c5be1e5ebec7d5bd14f71427d1e84f3dd0314c0f7b2291e5b200ac8c7c3b925906106be908590610be1565b60405180910390a3505050565b6001600160a01b0383166106f15760405162461bcd60e51b815260040161039c90610b13565b6001600160a01b0382166107175760405162461bcd60e51b815260040161039c90610985565b610722838383610847565b6001600160a01b0383166000908152602081905260409020548181101561075b5760405162461bcd60e51b815260040161039c90610a50565b6001600160a01b03808516600090815260208190526040808220858503905591851681529081208054849290610792908490610bf8565b92505081905550826001600160a01b0316846001600160a01b03167fddf252ad1be2c89b69c2b068fc378daa952ba7f163c4a11628f55a4df523b3ef846040516107dc9190610be1565b60405180910390a36107ef848484610847565b50505050565b600580546001600160a01b038381166001600160a01b0319831681179093556040519116919082907f8be0079c531659141344cd1fd0a4f28419497f9722a3daafe3b4186f6b6457e090600090a35050565b505050565b80356001600160a01b038116811461047c57600080fd5b600060208284031215610874578081fd5b6103bf8261084c565b6000806040838503121561088f578081fd5b6108988361084c565b91506108a66020840161084c565b90509250929050565b6000806000606084860312156108c3578081fd5b6108cc8461084c565b92506108da6020850161084c565b9150604084013590509250925092565b600080604083850312156108fc578182fd5b6109058361084c565b946020939093013593505050565b6001600160a01b0391909116815260200190565b901515815260200190565b6000602080835283518082850152825b8181101561095e57858101830151858201604001528201610942565b8181111561096f5783604083870101525b50601f01601f1916929092016040019392505050565b60208082526023908201527f45524332303a207472616e7366657220746f20746865207a65726f206164647260408201526265737360e81b606082015260800190565b60208082526026908201527f4f776e61626c653a206e6577206f776e657220697320746865207a65726f206160408201526564647265737360d01b606082015260800190565b60208082526022908201527f45524332303a20617070726f766520746f20746865207a65726f206164647265604082015261737360f01b606082015260800190565b60208082526026908201527f45524332303a207472616e7366657220616d6f756e7420657863656564732062604082015265616c616e636560d01b606082015260800190565b60208082526028908201527f45524332303a207472616e7366657220616d6f756e74206578636565647320616040820152676c6c6f77616e636560c01b606082015260800190565b6020808252818101527f4f776e61626c653a2063616c6c6572206973206e6f7420746865206f776e6572604082015260600190565b60208082526025908201527f45524332303a207472616e736665722066726f6d20746865207a65726f206164604082015264647265737360d81b606082015260800190565b60208082526024908201527f45524332303a20617070726f76652066726f6d20746865207a65726f206164646040820152637265737360e01b606082015260800190565b60208082526025908201527f45524332303a2064656372656173656420616c6c6f77616e63652062656c6f77604082015264207a65726f60d81b606082015260800190565b90815260200190565b60ff91909116815260200190565b60008219821115610c0b57610c0b610d7e565b500190565b80825b6001808611610c225750610c4d565b818704821115610c3457610c34610d7e565b80861615610c4157918102915b9490941c938002610c13565b94509492505050565b60006103bf6000198484600082610c6f575060016103bf565b81610c7c575060006103bf565b8160018114610c925760028114610c9c57610cc9565b60019150506103bf565b60ff841115610cad57610cad610d7e565b6001841b915084821115610cc357610cc3610d7e565b506103bf565b5060208310610133831016604e8410600b8410161715610cfc575081810a83811115610cf757610cf7610d7e565b6103bf565b610d098484846001610c10565b808604821115610d1b57610d1b610d7e565b02949350505050565b6000816000190483118215151615610d3e57610d3e610d7e565b500290565b600281046001821680610d5757607f821691505b60208210811415610d7857634e487b7160e01b600052602260045260246000fd5b50919050565b634e487b7160e01b600052601160045260246000fdfea264697066735822122077c684fda893127a339bcf4fe01f510938869e719af2d0befd595554a208300664736f6c63430008000033",
  "immutableReferences": {},
  "source": "// SPDX-License-Identifier: MIT\r\npragma solidity >=0.4.22 <0.9.0;\r\n\r\nimport \"@openzeppelin/contracts/token/ERC20/ERC20.sol\";\r\nimport \"@openzeppelin/contracts/access/Ownable.sol\";\r\n\r\n/**\r\n * @title SimpleToken\r\n * @dev Very simple ERC20 Token example, where all tokens are pre-assigned to the creator.\r\n * Note they can later distribute these tokens as they wish using `transfer` and other `ERC20` functions.\r\n */\r\ncontract WheezyToken is ERC20, Ownable {\r\n\r\n    string public constant TOKEN_NAME = \"WheezyToken\";\r\n    string public constant TOKEN_SYMBOL = \"WHEEZY\";\r\n    uint8 public constant TOKEN_DECIMALS = 18;\r\n    uint public constant TOKEN_INITIAL_SUPPLY  = 1000000 * (10 ** uint256(TOKEN_DECIMALS));\r\n\r\n    /**\r\n     * @dev Constructor that gives msg.sender all of existing tokens.\r\n     */\r\n    constructor() ERC20(TOKEN_NAME, TOKEN_SYMBOL) {\r\n        _mint(msg.sender, TOKEN_INITIAL_SUPPLY);\r\n    }\r\n\r\n}",
  "sourcePath": "C:/ProgramsOfMine/wamp64/www/workspace/BLOCKCHAIN_APPS/eth-dapps/03-erc20-dapp/contracts/WheezyToken.sol",
  "compiler": {
    "name": "solc",
    "version": "0.8.0+commit.c7dfd78e.Emscripten.clang"
  },
  "schemaVersion": "3.4.1",
  "updatedAt": "2021-08-18T16:31:39.493Z",
  "devdoc": {
    "details": "Very simple ERC20 Token example, where all tokens are pre-assigned to the creator. Note they can later distribute these tokens as they wish using `transfer` and other `ERC20` functions.",
    "kind": "dev",
    "methods": {
      "allowance(address,address)": {
        "details": "See {IERC20-allowance}."
      },
      "approve(address,uint256)": {
        "details": "See {IERC20-approve}. Requirements: - `spender` cannot be the zero address."
      },
      "balanceOf(address)": {
        "details": "See {IERC20-balanceOf}."
      },
      "constructor": {
        "details": "Constructor that gives msg.sender all of existing tokens."
      },
      "decimals()": {
        "details": "Returns the number of decimals used to get its user representation. For example, if `decimals` equals `2`, a balance of `505` tokens should be displayed to a user as `5.05` (`505 / 10 ** 2`). Tokens usually opt for a value of 18, imitating the relationship between Ether and Wei. This is the value {ERC20} uses, unless this function is overridden; NOTE: This information is only used for _display_ purposes: it in no way affects any of the arithmetic of the contract, including {IERC20-balanceOf} and {IERC20-transfer}."
      },
      "decreaseAllowance(address,uint256)": {
        "details": "Atomically decreases the allowance granted to `spender` by the caller. This is an alternative to {approve} that can be used as a mitigation for problems described in {IERC20-approve}. Emits an {Approval} event indicating the updated allowance. Requirements: - `spender` cannot be the zero address. - `spender` must have allowance for the caller of at least `subtractedValue`."
      },
      "increaseAllowance(address,uint256)": {
        "details": "Atomically increases the allowance granted to `spender` by the caller. This is an alternative to {approve} that can be used as a mitigation for problems described in {IERC20-approve}. Emits an {Approval} event indicating the updated allowance. Requirements: - `spender` cannot be the zero address."
      },
      "name()": {
        "details": "Returns the name of the token."
      },
      "owner()": {
        "details": "Returns the address of the current owner."
      },
      "renounceOwnership()": {
        "details": "Leaves the contract without owner. It will not be possible to call `onlyOwner` functions anymore. Can only be called by the current owner. NOTE: Renouncing ownership will leave the contract without an owner, thereby removing any functionality that is only available to the owner."
      },
      "symbol()": {
        "details": "Returns the symbol of the token, usually a shorter version of the name."
      },
      "totalSupply()": {
        "details": "See {IERC20-totalSupply}."
      },
      "transfer(address,uint256)": {
        "details": "See {IERC20-transfer}. Requirements: - `recipient` cannot be the zero address. - the caller must have a balance of at least `amount`."
      },
      "transferFrom(address,address,uint256)": {
        "details": "See {IERC20-transferFrom}. Emits an {Approval} event indicating the updated allowance. This is not required by the EIP. See the note at the beginning of {ERC20}. Requirements: - `sender` and `recipient` cannot be the zero address. - `sender` must have a balance of at least `amount`. - the caller must have allowance for ``sender``'s tokens of at least `amount`."
      },
      "transferOwnership(address)": {
        "details": "Transfers ownership of the contract to a new account (`newOwner`). Can only be called by the current owner."
      }
    },
    "title": "SimpleToken",
    "version": 1
  },
  "userdoc": {
    "kind": "user",
    "methods": {},
    "version": 1
  }
}